:100000001DC100000C94810D0C94AC0D0C94D70D07
:100010000C94020E0C942D0E0C94580E0C94830E1E
:100020000C94AE0E3CC100003AC1000038C1000083
:1000300036C1000034C1000032C1000030C10000F0
:100040002EC100000C94A50B2AC1000028C100009D
:1000500026C1000024C1000022C100000C94DA0E69
:100060001EC100000C943D120C94731218C10000C4
:1000700016C1000014C1000012C1000010C1000030
:100080000EC100000CC100000AC1000008C1000040
:1000900006C1000004C1000002C1000000C1000050
:1000A000FEC00000FCC00000FAC00000F8C0000064
:1000B000F6C00000F4C00000F2C00000F0C0000074
:1000C000EEC00000ECC00000EAC00000E8C0000084
:1000D000E6C00000E4C00000E2C00000E0C0000094
:1000E000DEC00000FD0F0010EF0FF30FF90F371007
:1000F000041008100E10121016101C1020102410DE
:1001000037102A102E1032100000010008004000A5
:1001100000010004050D00000A0B02090C0D0E0879
:1001200007030401000000000000000000000000C0
:1001300000000000000000000000000000000000BF
:10014000000012111000000000000000000000007C
:10015000000000000000000000000000010210206C
:1001600020080810204010204080020102010804ED
:100170000201010204081020408080402010080481
:1001800002018004020180402010080402010804DA
:10019000020101020408102040800102040810201E
:1001A0004080050505050705080808080202020247
:1001B0000A0A080804040404010101010101010103
:1001C0000303030303030303040707070C0C0C0CCE
:1001D0000C0C0C0C020202020606060606060606B7
:1001E0000B0B0B0B0B0B0B0B00002000230026004E
:1001F00029002C002F00320000010000030106013D
:10020000090100002200250028002B002E003100EB
:10021000340002010000050108010B01000021006B
:10022000240027002A002D003000330001010000C7
:10023000040107010A0113047D07A51211241FBE42
:10024000CFEFD1E2DEBFCDBF00E00CBF13E0A0E0F6
:10025000B2E0E8E4F8E200E00BBF02C007900D92C4
:10026000AE35B107D9F725E0AEE5B3E001C01D9288
:10027000A033B207E1F712E0CCE3D2E000E006C021
:1002800022970109FE010BBF0E940814C633D10753
:1002900080E00807A9F70E94D4130C942214B0CE72
:1002A0006115710581F0DB010D900020E9F7AD01CA
:1002B00041505109461B570BDC01ED91FC91028026
:1002C000F381E02D199480E090E0089540E060E033
:1002D00082E694E00E94BE0C6CE172E082E694E05B
:1002E000DFDF60E086E10E94711060E087E10E943C
:1002F000711061E088E10E94711061E089E10E9463
:10030000711061E08CE10E94711061E08FE10E9448
:1003100071108DE00E94A610019719F08AE090E01C
:1003200033C08FE090E030C041E060E082E694E0CE
:100330000E94BE0C60915E0470915F044AE050E040
:1003400082E694E00E94CB1368EE73E080E090E0D8
:100350000E94530F80915E0490915F040A9721F4EC
:1003600082E694E00E94B90C40E060E082E694E00E
:100370000E94BE0C6CE172E082E694E091DF809115
:100380005E0490915F04019790935F0480935E04F4
:1003900080915E0490915F04029734F682E694E0C7
:1003A0000E94B90C40E060E082E694E00E94BE0C3E
:1003B00067E272E082E694E073DF60E086E10E942B
:1003C000711061E087E10E94711060E088E10E9495
:1003D000711060ED77E080E090E00E94530F61E0E3
:1003E00086E10E94711060E087E10E94711060E078
:1003F00088E10E94711082E694E00C94B90C40E010
:1004000060E082E694E00E94BE0C64E372E082E663
:1004100094E046DF60E089E10E94711060E08AE1CB
:100420000E94711061E08BE10E9471108CE00E94CB
:10043000A610019719F08AE090E02DC08FE090E0BF
:100440002AC041E060E082E694E00E94BE0C609128
:100450005E0470915F044AE050E082E694E00E94FE
:10046000CB1368EE73E080E090E00E94530F809120
:100470005E0490915F040A9749F482E694E00E943A
:10048000B90C64E372E082E694E00ADF80915E04D6
:1004900090915F04019790935F0480935E04809134
:1004A0005E0490915F04029764F682E694E00E94F5
:1004B000B90C40E060E082E694E00E94BE0C6FE37D
:1004C00072E082E694E0ECDE60E089E10E94711067
:1004D00061E08AE10E94711060E08BE10E9471107E
:1004E00060ED77E080E090E00E94530F61E089E1E9
:1004F0000E94711060E08AE10E94711060E08BE15F
:100500000E94711082E694E00C94B90C40E060E027
:1005100082E694E00E94BE0C6CE472E082E694E015
:10052000BFDE60E08CE10E94711060E08DE10E940E
:10053000711061E08EE10E9471108BE00E94A610A4
:10054000019719F08AE090E02DC08FE090E02AC07A
:1005500041E060E082E694E00E94BE0C60915E049F
:1005600070915F044AE050E082E694E00E94CB1371
:1005700068EE73E080E090E00E94530F80915E048B
:1005800090915F040A9749F482E694E00E94B90CC6
:100590006CE472E082E694E083DE80915E049091E8
:1005A0005F04019790935F0480935E0480915E04E2
:1005B00090915F04029764F682E694E00E94B90C81
:1005C00040E060E082E694E00E94BE0C67E572E0E5
:1005D00082E694E065DE60E08CE10E94711061E0EB
:1005E0008DE10E94711060E08EE10E94711060ED5B
:1005F00077E080E090E00E94530F61E08CE10E9480
:10060000711060E08DE10E94711060E08EE10E9447
:10061000711082E694E00C94B90C40E060E082E650
:1006200094E00E94BE0C64E672E082E694E038DE5C
:1006300060E08FE10E94711060E080E20E94711022
:1006400061E081E20E9471108AE00E94A610019789
:1006500019F08AE090E02DC08FE090E02AC041E0E0
:1006600060E082E694E00E94BE0C60915E047091AE
:100670005F044AE050E082E694E00E94CB1368EE0B
:1006800073E080E090E00E94530F80915E049091AF
:100690005F040A9749F482E694E00E94B90C64E68C
:1006A00072E082E694E0FCDD80915E0490915F044C
:1006B000019790935F0480935E0480915E04909113
:1006C0005F04029764F682E694E00E94B90C40E071
:1006D00060E082E694E00E94BE0C6FE672E082E683
:1006E00094E0DEDD60E08FE10E94711061E080E265
:1006F0000E94711060E081E20E94711060ED77E06D
:1007000080E090E00E94530F61E08FE10E94711041
:1007100060E080E20E94711060E081E20E9471104E
:1007200082E694E00C94B90C40E060E082E694E04C
:100730000E94BE0C6CE772E082E694E0B1DD60E0FE
:1007400086E10E94711060E087E10E94711061E013
:1007500088E10E94711084E190E090935F0480939F
:100760005E0480915E0490915F0402975CF141E029
:1007700060E082E694E00E94BE0C60915E0470919D
:100780005F044AE050E082E694E00E94CB1368EEFA
:1007900073E080E090E00E94530F80915E0490919E
:1007A0005F040A9749F482E694E00E94B90C6CE772
:1007B00072E082E694E074DD80915E0490915F04C3
:1007C0000197CBCF82E694E00E94B90C40E060E054
:1007D00082E694E00E94BE0C67E272E082E694E05A
:1007E0005FDD60E086E10E94711061E087E10E94B8
:1007F000711060E088E10E94711060ED77E080E0A8
:1008000090E00E94530F61E086E10E94711060E069
:1008100087E10E94711060E088E10E94711082E619
:1008200094E00C94B90CCF92EF920F9387E2C82E0C
:1008300096E2E92E05E224E243E262E282E694E0F7
:100840000E945C0DE12C07E026E045E060ED77E0DA
:100850008EE593E093D30F91EF90CF90089520E031
:1008600042E060E182E694E00E94D60C26E040E897
:1008700055E260E070E083E994E00E94DD1160E001
:100880008DE00E94381060E08CE00E94381060E03B
:100890008BE00E94381060E08AE00E94381061E02E
:1008A00086E10E94381061E087E10E94381061E023
:1008B00088E10E94381061E089E10E94381061E00F
:1008C0008AE10E94381061E08BE10E94381061E0FB
:1008D0008CE10E94381061E08DE10E94381061E0E7
:1008E0008EE10E94381061E08FE10E94381061E0D3
:1008F00080E20E94381061E081E20E9438108EE5AB
:1009000093E04ED7811106C06CE872E083E994E071
:100910000C941B1308950F931F93CF93DF93CDB7C0
:10092000DEB7ED970FB6F894DEBF0FBECDBF809156
:100930005A0490915B04892B09F046C010925D0423
:1009400010925C0480915C0490915D040597B4F56D
:1009500061E087E10E94711061E08AE10E947110FC
:1009600061E08DE10E94711061E080E20E947110EF
:100970006AEF70E080E090E00E94530F60E087E152
:100980000E94711060E08AE10E94711060E08DE1C8
:100990000E94711060E080E20E9471106AEF70E0C6
:1009A00080E090E00E94530F80915C0490915D0480
:1009B000019690935D0480935C04C4CF81E090E045
:1009C00090935B0480935A048CE38E010F5F1F4F5A
:1009D000F801982F11929A95E9F78DAFAE01435C1B
:1009E0005F4FB8018EE593E093D2882359F081E000
:1009F00090E09093610480936004B80183E994E0EF
:100A00000E941B138091600490916104019729F466
:100A10008BDE109261041092600458DCAE01435CDE
:100A20005F4FB8018EE593E073D2882359F081E0DF
:100A300090E09093610480936004B80183E994E0AE
:100A40000E941B138091600490916104019729F426
:100A50006BDE1092610410926004D1DCAE01435C45
:100A60005F4FB8018EE593E053D2882359F081E0BF
:100A700090E09093610480936004B80183E994E06E
:100A80000E941B138091600490916104019729F4E6
:100A90004BDE109261041092600438DDAE01435CBD
:100AA0005F4FB8018EE593E033D2882359F081E09F
:100AB00090E09093610480936004B80183E994E02E
:100AC0000E941B138091600490916104019729F4A6
:100AD0002BDE10926104109260049FDDED960FB63C
:100AE000F894DEBF0FBECDBFDF91CF911F910F9164
:100AF0000895682780E1689F90011124622770E0C3
:100B0000362F2227492F50E0242B352BCB01F4E040
:100B100095958795FA95E1F728273927CB01A3E02A
:100B2000880F991FAA95E1F782279327089581E0FE
:100B30000895FC0165830895FC0164830895FC0118
:100B400062870895FC0163870895FC016487089516
:100B50004095FC0125854223462B45870895FC01DD
:100B600086810895FC0187810895FC0180850895A0
:100B7000FC018185089580E00895CF93DF93EC0117
:100B8000E881F9810280F381E02DCE011995811170
:100B900003C00E94D90EF4CFDF91CF910895CF9377
:100BA000DF93EC018A819B81039719F40E94D90E8F
:100BB000F9CF81E0DF91CF9108958F929F92AF920C
:100BC000BF92CF92DF92EF92FF92CF93DF93EC012F
:100BD0006B010E94240F4B015C01E12CF12C0E945F
:100BE000240F681979098A099B096C157D058E0502
:100BF0009F0560F4E881F9810280F381E02DCE0148
:100C00001995811105C00E94D90EE9CF80E001C07D
:100C100081E0DF91CF91FF90EF90DF90CF90BF9078
:100C2000AF909F908F9008958F929F92AF92BF92B6
:100C3000CF92DF92EF92FF92CF93DF93EC016B01A3
:100C40000E94240F4B015C01E12CF12C0E94240F27
:100C5000681979098A099B096C157D058E059F0520
:100C600038F48A819B81039729F40E94D90EEECF34
:100C700080E001C081E0DF91CF91FF90EF90DF90A5
:100C8000CF90BF90AF909F908F900895FC018CE91A
:100C900092E091838083138212828FEF8483828714
:100CA000838714861586108A1786128A118A148AF9
:100CB000138A08950895089508950895FC01758391
:100CC00064830895FC01778366830895FC01738330
:100CD00062830895FC0188EC92E0918380837383A2
:100CE0006283558344833783268308956EBD000055
:100CF0000DB407FEFDCF8EB508958CB580688CBD10
:100D000008958CB58F778CBD0895FC0130852185C1
:100D100080918804882399F09FB7F8948091880483
:100D2000813059F48DB3809386044DB3809187044C
:100D3000809584238DBB9FBF02C0909386043CBDE9
:100D40002DBD089580918804882361F09FB7F894A1
:100D50002091880480918604213019F48DBB9FBFB7
:100D600008958FBF08956CC5CF92DF92EF92FF92E6
:100D70000F9330E0C12CF2E1DF2EFAE7EF2EF12CD9
:100D80004C155D056E057F0540F4F694E794D79405
:100D9000C7943F5F3630A1F737E041E04327211188
:100DA00002C050E701C050E5242F30E0359527956B
:100DB00023700C70202B252BFC0120834170418374
:100DC0000F91FF90EF90DF90CF9008952CB5982F62
:100DD00093702C7F922B9CBD9DB582FB882780F958
:100DE0009E7F982B9DBD0895EF92FF920F93CF9316
:100DF000DF931F921F92CDB7DEB77C01FC01868185
:100E00009781009771F08130910539F0823091051A
:100E100031F0039731F40CE005C004E003C008E0B2
:100E200001C000E08CB5837F802B8CBDF7018281EF
:100E300093818430910569F08330910579F0823097
:100E4000910589F00197A1F440E854E86EE170E063
:100E500013C040E054E264EF70E00EC040E052E1A5
:100E60006AE770E009C040E059E06DE370E004C05B
:100E700040E452E46FE070E021E0F7018481958165
:100E8000019709F420E0CE0101966EDF89819A81F5
:100E9000F7019187808784819581019719F48CB53A
:100EA000806202C08CB58F7D8CBDF70182819381F9
:100EB00001978430910528F4FC01E452FD4F008134
:100EC00001C001E0802F82DF89D4802F7FDF0F9067
:100ED0000F90DF91CF910F91FF90EF900895CF93F6
:100EE000DF93EC01F7DE84EE92E09983888380E55E
:100EF00088871986DF91CF91089520E030E040E0A7
:100F000050E060E070E08AE794E0E9CF8CE3089578
:100F1000DF92EF92FF920F931F93CF93DF93EC0139
:100F20007B018A01E881F9810280F381E02D199526
:100F3000D82E8823D1F0E114F104B1F00115110588
:100F400099F0FE01E759FF4F90819750F801808199
:100F5000981708F49083F801408150E0BE01665D67
:100F60007F4FC7010E9419141D8E8D2DDF91CF91E7
:100F70001F910F91FF90EF90DF900895AF92BF9275
:100F8000CF92DF92EF920F93CF93DF93CDB7DEB77F
:100F90002A970FB6F894DEBF0FBECDBF6C015B0180
:100FA0002A87498773DE8CEF92E0F6019183808374
:100FB000B68AA58A4985478B2A85208F018FE38EC3
:100FC00088E0E4E1F2E0DE01119601900D928A954D
:100FD000E1F7D601A359BF4F88E0FE013196019099
:100FE0000D928A95E1F72A960FB6F894DEBF0FBEF0
:100FF000CDBFDF91CF910F91EF90DF90CF90BF9059
:10100000AF9008952F923F924F925F926F927F928E
:101010008F929F92AF92BF92CF92DF92EF92FF9208
:101020000F931F93CF93DF9300D01F921F92CDB7E2
:10103000DEB71A013D832C836115710511F4F901A6
:1010400043C06B01E12CF12C83E0CC0CDD1CEE1CC9
:10105000FF1C8A95D1F70AE011E0F1E0FB83812CB7
:1010600094E2992E94EFA92EB12C2A01612C712CB7
:1010700042E050E0B801CE0101960E94101429818F
:101080003A8140E050E0C501B4010E94E013CA017A
:10109000B901A70196010E94E013223031054105F4
:1010A000510528F0241535054605570540F08B817C
:1010B0008F5F8B830E5F1F4F8730D1F609C0EB81A6
:1010C000E63059F4EC81FD811182108280E012C07B
:1010D0002230310541055105A8F3C101A0E0B0E07F
:1010E00082179307A407B50768F3EC81FD8131836C
:1010F00020838B810F900F900F900F900F90DF91B6
:10110000CF911F910F91FF90EF90DF90CF90BF9004
:10111000AF909F908F907F906F905F904F903F9097
:101120002F900895CF93DF931F921F92CDB7DEB714
:10113000FC01658976899E012F5F3F4F4FEF5FEF7E
:1011400061DF8823A9F01092800098E090938100DD
:1011500090918100982B9093810089819A8190933E
:1011600089008093880080916F00826080936F0077
:101170000F900F90DF91CF910895CF93DF93EC0103
:101180008F89E4D721E0892B09F420E08A8D82271A
:10119000DF91CF910895FC01808DA3C7FC01238DC1
:1011A0006227818D9EC7CF93DF93EC018A819B815B
:1011B000029751F060E0CE01F1DF60E0CE01EBDF9D
:1011C00082E090E09B838A83DF91CF910895CF9353
:1011D000DF93EC018A819B81049751F060E0CE019E
:1011E000DDDF60E0CE01D7DF84E090E09B838A837F
:1011F000DF91CF910895CF93DF93EC018A819B819A
:10120000039779F0FE01E659FF4F10823196108264
:101210003196108261E0CE01C1DF83E090E09B83D4
:101220008A83DF91CF9108956F927F929F92AF92C0
:10123000BF92CF92DF92EF92FF920F931F93CF93C3
:10124000DF931F921F92CDB7DEB73C01B62E4D3310
:1012500008F00DC17C0125E7E20EF11CDC01ED91E7
:10126000FC910484F585E02D4A83798319954A81A0
:1012700017E0140F612F8FEF9FEF3BDCE12FF0E0C1
:10128000A4E0F595E795AA95E1F7EC5DFC4F208188
:10129000F70120831F70E12FF0E0EC5DFC4F20810F
:1012A000F301EA58FF4F2083D3011A966C9121DC99
:1012B000F3012285E22FF0E0B4E0F595E795BA95C9
:1012C000E1F7EC5DFC4F3081D301A958BF4F3C934F
:1012D0002F70E22FF0E0EC5DFC4F2081F301E85825
:1012E000FF4F2083D3011B966C9103DCF301238510
:1012F000E22FF0E014E0F595E7951A95E1F7EC5D43
:10130000FC4F3081D301A758BF4F3C932F70E22F81
:10131000F0E0EC5DFC4F2081F301E658FF4F2083A5
:10132000D3011C966C91E5DBF3012485E22FF0E0FC
:1013300004E0F595E7950A95E1F7EC5DFC4F308107
:10134000D301A558BF4F3C932F70E22FF0E0EC5D26
:10135000FC4F2081F301E458FF4F2083D3011D96F9
:101360006C91C7DBF3012585E22FF0E034E0F595C1
:10137000E7953A95E1F7EC5DFC4F3081D301A35836
:10138000BF4F3C932F70E22FF0E0EC5DFC4F2081CB
:10139000F301E258FF4F20839B2C6301F0E8CF0E4E
:1013A000D11C0B2D7981172F4A81202F2919241741
:1013B00010F55801D8016C914A839BDBF6013197F7
:1013C000D8012D918D01A22FB0E074E0B595A795BD
:1013D0007A95E1F7AC5DBC4F2C912083D501EC915F
:1013E000EF70F0E0EC5DFC4F2081F6012083F2E02D
:1013F000CF0ED11CD9CF50E04B5F5F4F440F551F2C
:1014000080959095E40EF51EDC0134E0B695A79525
:101410003A95E1F7AF70BB27AC5DBC4F2C91D7017B
:101420002C93FC01EF70FF27EC5DFC4F208111969F
:101430002C931197FC01EF2FFF27E295EF70EC5DE5
:10144000FC4F208112962C931297E92FFF27EF7003
:10145000FF27EC5DFC4F808113968C93F301E550E0
:10146000FF4F445F4083C301C6DE81E001C080E0DE
:101470000F900F90DF91CF911F910F91FF90EF9000
:10148000DF90CF90BF90AF909F907F906F90089526
:10149000862F86958695887098E0980F891749F071
:1014A000E82FF0E0EC5DFC4F2081621719F08F5FB0
:1014B000F5CF80E00895FF920F931F93CF93DF93B2
:1014C000EC01F12C8FEF9FEF8E0107591F4FF801B0
:1014D0002081F21638F4FE01EF0DF11D65A109DB44
:1014E000F394F5CF883B904F39F08F85988901961A
:1014F000988B8F871D8E19C08EA18E838FA18F83AD
:1015000088A5888789A589878D81811107C09E81DB
:101510008C81981719F08E818F3F39F489899A89C7
:1015200001969A8B898B81E08D8FDF91CF911F91EE
:101530000F91FF900895CF93DF93EC018A819B81F7
:10154000039751F0CE0143DE8C8D882319F0CE0134
:10155000B2DF1C8E8D8D01C080E0DF91CF910895A8
:101560001F93CF93DF93EC0108DE882319F09F8D42
:101570009F5F9F8F9E8D891771F098A1903518F409
:101580002BE030E002C02DE130E098A1290F311DA1
:1015900028A38E8F03C088A18C5E88A388A1803A7F
:1015A00008F46BC08AA19BA1969587959BA38AA3FB
:1015B0008F8D853028F08AA19BA198609BA38AA378
:1015C00088A1805A88A31F8E89A1882309F443C06B
:1015D0008CA18F5F8CA38C3008F44FC06AA17BA1D3
:1015E0006F73CE0155DF182F6AA17BA146E0769577
:1015F00067954A95E1F7CE014BDF90E1199F900185
:101600001124822BBE0167597F4FFB019081DE01BF
:10161000A859BF4F9923A9F0FB01908121E0290F20
:101620002083AE01490F511DFA0185A3FB01908172
:101630008C91981770F019A281E08C8FCE01B3DDE8
:1016400008C08C939C91973090F09C91943478F4DE
:10165000E3CF1CA212C08AA19BA188339B4069F4EE
:1016600081E089A31CA2C759DF4F188206C019A2C6
:101670008F8598890196988B8F87DF91CF911F91E5
:101680000895CF92DF92EF92FF920F931F93CF9323
:10169000DF93EC018C0104591F4FF801808191E028
:1016A000980F9083811134C06E01FAE6CF0ED11CE1
:1016B000F6018081EF56FF4F9081891740F0CE01EF
:1016C00072DD8B899C8901969C8B8B8B21C0FE01DE
:1016D000E80FF11DE359FF4F608170E07E01FBE6EA
:1016E000EF0EF11CF701808191E0980F908302C00A
:1016F000759567958A95E2F76170CE014CDDF7012B
:101700008081863028F01082F60180818F5F80838F
:10171000F8018081883008F01082DF91CF911F910D
:101720000F91FF90EF90DF90CF900895FC01228100
:1017300033812430310509F413CFFC012281338138
:101740002330310509F49DCF08951F920F920FB6F3
:101750000F9211240BB60F922F933F934F935F93E9
:101760006F937F938F939F93AF93BF93EF93FF9369
:101770008091840490918504D9DFFF91EF91BF910E
:10178000AF919F918F917F916F915F914F913F9119
:101790002F910F900BBE0F900FBE0F901F901895BA
:1017A0001F93CF93DF93EC01C2D9182F882389F0C0
:1017B000D0938504C093840461E0888D59D460E09F
:1017C0008F8956D461E0898D53D4CE01ECDCCE01F3
:1017D000A9DC812FDF91CF911F910895CF93CFB7CF
:1017E000F89480918904811123C0E7EDF1E08491A0
:1017F000E1E9F1E09491E82FF0E0EE0FFF1FE45EE5
:10180000FD4FA591B4918C91892319F461E085E392
:1018100068D461E085E32CD48CB580618CBD8CB537
:1018200080648CBD61E084E323D461E083E320D451
:10183000809189048F5F80938904CFBFCF910895F1
:101840009FB7F89480918904882319F08150809380
:10185000890480918904811105C08CB58F7B8CBD72
:10186000109288049FBF0895CF93DF93EC0160E04E
:101870008E8137D481E090E03BD361E08E8131D41A
:1018800081E090E035D360E08E812BD484E690E057
:10189000DF91CF912DC3EF92FF920F931F93CF93C0
:1018A000DF938C01C0E0D0E0E62EF12CB7010C2EC6
:1018B00002C0759567950A94E2F76170F801EC0F24
:1018C000FD1F87810ED42196C430D10579F7C80158
:1018D000DF91CF911F910F91FF90EF90C5CFEF92C5
:1018E000FF920F931F93CF93DF938C01C0E0D0E062
:1018F000E62EF12CB7010C2E02C0759567950A945F
:10190000E2F76170F801EC0FFD1F8781EAD32196A1
:10191000C830D10579F7C801DF91CF911F910F91A0
:10192000FF90EF90A1CF1F93CF93DF93EC01162F81
:10193000642F8C81D6D38D818F3F11F060E0D1D39D
:101940008F85612F84FF05C0CE01DF91CF911F915C
:10195000C6CF70E084E0759567958A95E1F7CE0172
:101960009ADF612FCE01DF91CF911F9194CF40E09C
:10197000DACF61E0FCDF80ED97E0BAC2443008F0D6
:1019800043E0FC012389421710F04FEF420FFC01A6
:10199000E40FF11D2489260F2068622FE8CFFC0197
:1019A0006089262F2460208B6C60E1CF0F931F93FA
:1019B000CF93DF93EC01423018F08F8588608F87DA
:1019C0004B8B1C8A80E48D8B6E8B70E0605C7F4F4C
:1019D0006F8B222329F0413019F48F8584608F8723
:1019E00061E08C8145D38D818F3F11F061E040D360
:1019F00061E08E813DD300E010E08F8584FF03C05D
:101A000088E090E002C084E090E0081719074CF4E9
:101A1000FE01E00FF11F61E087812AD30F5F1F4FA6
:101A2000ECCF80E593EC64D260E08C815AD360E027
:101A30008E8157D38D818F3F11F060E052D36F8537
:101A400064FD16C063E0CE0126DF84E991E150D247
:101A500063E0CE0120DF84E991E14AD263E0CE0168
:101A60001ADF86E990E044D262E0CE0114DF11C0B3
:101A70006062CE017CDF84E991E13AD26F856062D9
:101A8000CE0175DF86E990E033D26F856062CE01CA
:101A90006EDF6F856062CE016ADF84E0888BCE01E5
:101AA0007EDFCE0166DF82E0898B66E0CE01DF91CA
:101AB000CF911F910F915BCFCF92EF920F93FC01CB
:101AC0001382128288E393E09183808364838FEF93
:101AD0008583468327830087E186C2861386148622
:101AE00015861686178620E041E060E1CF010F9150
:101AF000EF90CF905BCF41E016DF81E090E008955A
:101B000008951F920F920FB60F9211240BB60F92E9
:101B10002F933F934F935F936F937F938F939F93F5
:101B2000AF93BF93EF93FF93E0910802F091090206
:101B30001995FF91EF91BF91AF919F918F917F91F7
:101B40006F915F914F913F912F910F900BBE0F902E
:101B50000FBE0F901F9018951F920F920FB60F9205
:101B600011240BB60F922F933F934F935F936F9374
:101B70007F938F939F93AF93BF93EF93FF93E091E6
:101B80000A02F0910B021995FF91EF91BF91AF916D
:101B90009F918F917F916F915F914F913F912F9185
:101BA0000F900BBE0F900FBE0F901F9018951F92B5
:101BB0000F920FB60F9211240BB60F922F933F93F3
:101BC0004F935F936F937F938F939F93AF93BF9345
:101BD000EF93FF93E0910C02F0910D021995FF91A4
:101BE000EF91BF91AF919F918F917F916F915F9195
:101BF0004F913F912F910F900BBE0F900FBE0F9002
:101C00001F9018951F920F920FB60F9211240BB6CA
:101C10000F922F933F934F935F936F937F938F9385
:101C20009F93AF93BF93EF93FF93E0910E02F091D8
:101C30000F021995FF91EF91BF91AF919F918F91F5
:101C40007F916F915F914F913F912F910F900BBEBC
:101C50000F900FBE0F901F9018951F920F920FB606
:101C60000F9211240BB60F922F933F934F935F93D4
:101C70006F937F938F939F93AF93BF93EF93FF9354
:101C8000E0910402F09105021995FF91EF91BF9147
:101C9000AF919F918F917F916F915F914F913F9104
:101CA0002F910F900BBE0F900FBE0F901F901895A5
:101CB0001F920F920FB60F9211240BB60F922F9313
:101CC0003F934F935F936F937F938F939F93AF93C4
:101CD000BF93EF93FF93E0910602F09107021995ED
:101CE000FF91EF91BF91AF919F918F917F916F91F4
:101CF0005F914F913F912F910F900BBE0F900FBEB0
:101D00000F901F9018951F920F920FB60F921124EB
:101D10000BB60F922F933F934F935F936F937F93E5
:101D20008F939F93AF93BF93EF93FF93E091100234
:101D3000F09111021995FF91EF91BF91AF919F9191
:101D40008F917F916F915F914F913F912F910F9064
:101D50000BBE0F900FBE0F901F9018951F920F9201
:101D60000FB60F9211240BB60F922F933F934F9300
:101D70005F936F937F938F939F93AF93BF93EF93F3
:101D8000FF93E0911202F09113021995FF91EF91E8
:101D9000BF91AF919F918F917F916F915F914F9183
:101DA0003F912F910F900BBE0F900FBE0F901F9081
:101DB000189508951F920F920FB60F9211242F932A
:101DC0003F938F939F93AF93BF9380918B04909198
:101DD0008C04A0918D04B0918E0430918A0423E08C
:101DE000230F2D3720F40196A11DB11D05C026E853
:101DF000230F0296A11DB11D20938A0480938B04AA
:101E000090938C04A0938D04B0938E0480918F04E2
:101E100090919004A0919104B09192040196A11D1B
:101E2000B11D80938F0490939004A0939104B0937C
:101E30009204BF91AF919F918F913F912F910F90FD
:101E40000FBE0F901F9018952FB7F89460918B04D8
:101E500070918C0480918D0490918E042FBF089511
:101E60003FB7F89480918F0490919004A0919104D1
:101E7000B091920426B5A89B05C02F3F19F001969A
:101E8000A11DB11D3FBF6627782F892F9A2F620FA2
:101E9000711D811D911D42E0660F771F881F991FDC
:101EA0004A95D1F70895CF92DF92EF92FF92CF93A8
:101EB000DF936B017C01D4DFEB01C114D104E10499
:101EC000F10479F076DFCCDF6C1B7D0B683E73404C
:101ED000A0F381E0C81AD108E108F108C851DC4F2D
:101EE000ECCFDF91CF91FF90EF90DF90CF900895EE
:101EF0008230910538F0880F991F880F991F059738
:101F00000197F1F70895789484B5826084BD84B513
:101F1000816084BD85B5826085BD85B5816085BDE4
:101F2000EEE6F0E0808181608083E1E8F0E01082FD
:101F3000808182608083808181608083E0E8F0E03E
:101F4000808181608083E1EBF0E080818460808328
:101F5000E0EBF0E0808181608083E1E9F0E0808166
:101F600082608083808181608083E0E9F0E080810D
:101F700081608083E1EAF0E08081826080838081FB
:101F800081608083E0EAF0E0808181608083E1E22B
:101F9000F1E0808182608083808181608083E0E2E3
:101FA000F1E0808181608083EAE7F0E080818460F5
:101FB0008083808182608083808181608083808152
:101FC000806880831092C100089590E0FC013197F1
:101FD000E231F10508F04BC0EE58FF4F13C4809179
:101FE00080008F7703C0809180008F7D8093800078
:101FF000089580918000877FF9CF84B58F7702C0E4
:1020000084B58F7D84BD08958091B0008F7703C023
:102010008091B0008F7D8093B000089580919000F2
:102020008F7707C0809190008F7D03C080919000D2
:10203000877F8093900008958091A0008F7707C0DC
:102040008091A0008F7D03C08091A000877F809346
:10205000A0000895809120018F7707C08091200112
:102060008F7D03C080912001877F80932001089598
:10207000CF93DF9390E0FC01E45AFE4F2491FC01E2
:10208000EE55FE4F8491882349F190E0880F991F07
:10209000FC01E45EFD4FA591B4918E5F9D4FFC0164
:1020A000C591D4919FB7611108C0F8948C91209587
:1020B00082238C93888182230AC0623051F4F89481
:1020C0008C91322F309583238C938881822B888347
:1020D00004C0F8948C91822B8C939FBFDF91CF9199
:1020E00008950F931F93CF93DF931F92CDB7DEB761
:1020F000282F30E0F901EA5EFE4F8491F901E45A9D
:10210000FE4F1491F901EE55FE4F04910023C1F0EA
:10211000882319F0698359DF6981E02FF0E0EE0F21
:10212000FF1FEE5FFD4FA591B4919FB7F8948C917E
:10213000611103C01095812301C0812B8C939FBF37
:102140000F90DF91CF911F910F910895CF93DF935F
:10215000282F30E0F901EA5EFE4F8491F901E45A3C
:10216000FE4FD491F901EE55FE4FC491CC2389F076
:1021700081112BDFEC2FF0E0EE0FFF1FE851FE4F37
:10218000A591B4912C912D2381E090E021F480E081
:1021900002C080E090E0DF91CF910895FC01818D35
:1021A000228D90E0805C9F4F821B91098F7399274D
:1021B0000895FC01918D828D981731F0828DE80F82
:1021C000F11D858D90E008958FEF9FEF0895FC013C
:1021D000918D828D981761F0828DDF01A80FB11D5E
:1021E0005D968C91928D9F5F9F73928F90E0089582
:1021F0008FEF9FEF08958CE992E1892B39F080E011
:1022000090E0892B19F098D1811125C080E090E0F1
:10221000892B41F080E090E0892B21F00E940000A2
:1022200081111CC080E090E0892B41F080E090E0BB
:10223000892B21F00E940000811113C080E090E002
:10224000892BA1F080E090E0892B81F00E940000B2
:1022500081110AC008950E940000D8CF0E9400009A
:10226000E1CF0E940000EACF0C9400000895FC0129
:10227000848DDF01A80FB11DA35ABF4F2C91848D0F
:1022800090E001968F739927848FA689B7892C9344
:10229000A089B1898C9180648C93938D848D9813DF
:1022A00006C00288F389E02D80818F7D80830895A8
:1022B000CF93DF93EC01888D8823C1F0EA89FB89F5
:1022C000808185FD05C0A889B9898C9186FD0EC0E5
:1022D0000FB607FCF5CF808185FFF2CFA889B989B9
:1022E0008C9185FFEDCFCE01C2DFE8CFDF91CF919A
:1022F0000895CF92DF92FF920F931F93CF93DF93B6
:102300001F92CDB7DEB76C0181E0D60158968C9351
:1023100058975B969C915B975C968C915C97981311
:1023200007C05096ED91FC915197808185FD2DC09D
:10233000F601038D10E00F5F1F4F0F731127F02E72
:10234000F601848DF81210C00FB607FCF9CFD60144
:102350005096ED91FC915197808185FFF1CFC60198
:10236000698385DF6981ECCF838DE80FF11DE35A26
:10237000FF4F6083D6015B960C935B975296ED916D
:10238000FC915397808180620CC0D6015696ED91E6
:10239000FC91579760835096ED91FC915197808105
:1023A0008064808381E090E00F90DF91CF911F9156
:1023B0000F91FF90DF90CF900895BF92CF92DF9260
:1023C000EF92FF92CF93DF93EC016A017B01B22E73
:1023D000E889F98982E08083411581EE580761051B
:1023E000710599F060E079E08DE390E0A701960136
:1023F000E7D1215031094109510956954795379543
:102400002795211580E1380790F0E889F989108235
:1024100060E874E88EE190E0A7019601D1D12150E7
:102420003109410951095695479537952795EC850E
:10243000FD853083EE85FF852083188EEC89FD892C
:10244000B082EA89FB89808180618083EA89FB8987
:10245000808188608083EA89FB89808180688083AD
:10246000EA89FB8980818F7D8083DF91CF91FF9006
:10247000EF90DF90CF90BF9008951F920F920FB60C
:102480000F9211240BB60F922F938F939F93EF937C
:10249000FF93E091A304F091A4048081E091A9044A
:1024A000F091AA0482FD12C090818091AC048F5FEC
:1024B0008F732091AD04821751F0E091AC04F0E0ED
:1024C000ED56FB4F958F8093AC0401C08081FF9146
:1024D000EF919F918F912F910F900BBE0F900FBE98
:1024E0000F901F9018951F920F920FB60F92112404
:1024F0000BB60F922F933F934F935F936F937F93FE
:102500008F939F93AF93BF93EF93FF9383E994E0EF
:10251000AEDEFF91EF91BF91AF919F918F917F912F
:102520006F915F914F913F912F910F900BBE0F9044
:102530000FBE0F901F90189583E994E02FDE21E0E5
:10254000892B09F420E0822F0895109296041092AE
:10255000950488EE93E0A0E0B0E080939704909318
:102560009804A0939904B0939A0480E493E0909324
:1025700094048093930485EC90E09093A00480935E
:102580009F0484EC90E09093A2048093A10480ECDB
:1025900090E09093A4048093A30481EC90E0909346
:1025A000A6048093A50482EC90E09093A804809305
:1025B000A70486EC90E09093AA048093A90410925B
:1025C000AC041092AD041092AE041092AF040895C2
:1025D000CF92DF92EF92FF920F931F93CF93DF93EF
:1025E0007C016A01EB0100E010E00C151D0571F0A3
:1025F0006991D701ED91FC910190F081E02DC70127
:102600001995892B19F00F5F1F4FEFCFC801DF918C
:10261000CF911F910F91FF90EF90DF90CF90089591
:10262000DC01ED91FC910190F081E02D19946CE4B6
:1026300073E00C9450010F931F93CF93DF93EC0141
:102640000E9450018C01CE01F2DF800F911FDF91BB
:10265000CF911F910F9108958F929F92AF92BF9249
:10266000CF92DF92EF92FF920F931F93CF93DF935E
:10267000CDB7DEB7A1970FB6F894DEBF0FBECDBFC2
:102680007C01C42EE52FCB01D22E19A221E02D15FD
:1026900010F02AE0D22E8E010F5D1F4F8D2C912C51
:1026A000A12CB12C6C2D7E2FA501940189D08C2DED
:1026B000D29E80191124015011098A3014F4805DD2
:1026C00001C0895CF8018083211531054105510560
:1026D00021F0C22EE32FCA01E5CFB801C7010E9445
:1026E0005001A1960FB6F894DEBF0FBECDBFDF91AB
:1026F000CF911F910F91FF90EF90DF90CF90BF90FF
:10270000AF909F908F900895CF92DF92EF92FF92BB
:102710000F931F93CF93DF93EC016A017B01211587
:10272000310579F4E881F9810190F081E02D642F81
:10273000DF91CF911F910F91FF90EF90DF90CF909D
:1027400019942A303105D9F477FF18C06DE268DF9B
:102750008C0144275527BA014C195D096E097F0980
:102760002AE0CE0179DF800F911FDF91CF911F9179
:102770000F91FF90EF90DF90CF9008952AE0B7017E
:10278000A601CE01DF91CF911F910F91FF90EF90A5
:10279000DF90CF9061CF9A01AB01662757FD60951E
:1027A000762FB2CF39D00895AEDBFDDF0E942F0423
:1027B000CBEFD0E10E948B042097E1F31CDDFACF30
:1027C000A1E21A2EAA1BBB1BFD010DC0AA1FBB1F35
:1027D000EE1FFF1FA217B307E407F50720F0A21BA7
:1027E000B30BE40BF50B661F771F881F991F1A9414
:1027F00069F760957095809590959B01AC01BD013E
:10280000CF010895EE0FFF1F0590F491E02D19946C
:102810000790F691E02D199481E090E0F89412C0B1
:10282000FB01DC0102C005900D9241505040D8F7E9
:102830000895FB01DC0102C001900D92415050400F
:08284000D8F70895F894FFCFCA
:1028480001000000800D800D800D800D800D800D31
:10285800800D800D2A2A2A2A2A2A382C57415920E5
:1028680031203A20474F005741592031203A205310
:10287800544F50005741592032203A20474F0057B3
:1028880041592032203A2053544F50005741592083
:1028980033203A20474F005741592033203A2053DC
:1028A800544F50005741592034203A20474F005781
:1028B80041592034203A2053544F50005741592051
:1028C8003120454D455247454E435900696E69745C
:1028D800206661696C656400000000009705D213EA
:1028E800D213D213D213BD05CF051406DD059C05FE
:1028F8009F05A205A505A8059905AF05B205B5056B
:10290800B805BB0500000000D2135A065B06D213B7
:10291800D2135E06620666065C065D0605000404C0
:102928000000000076067D068106F406B3065E0602
:10293800620666068506A20600000000D00B9B0A08
:10294800880714098607BD05CF051406DD059C0513
:102958009F05A205A505A8059905AF05B205B5050A
:10296800B805BB050D0E131516191A1C23252629A3
:102978002A2C3234000000007B0DE8120000000011
:102988007911E812CE10E710D91058110D0A006E0F
:0E299800616E00696E66006F7666002E0000AC
:00000001FF
