:100000001DC100000C94810D0C94AC0D0C94D70D07
:100010000C94020E0C942D0E0C94580E0C94830E1E
:100020000C94AE0E3CC100003AC1000038C1000083
:1000300036C1000034C1000032C1000030C10000F0
:100040002EC100000C94A50B2AC1000028C100009D
:1000500026C1000024C1000022C100000C94DA0E69
:100060001EC100000C943D120C94731218C10000C4
:1000700016C1000014C1000012C1000010C1000030
:100080000EC100000CC100000AC1000008C1000040
:1000900006C1000004C1000002C1000000C1000050
:1000A000FEC00000FCC00000FAC00000F8C0000064
:1000B000F6C00000F4C00000F2C00000F0C0000074
:1000C000EEC00000ECC00000EAC00000E8C0000084
:1000D000E6C00000E4C00000E2C00000E0C0000094
:1000E000DEC00000FD0F0010EF0FF30FF90F371007
:1000F000041008100E10121016101C1020102410DE
:1001000037102A102E1032100000010008004000A5
:1001100000010004050D00000A0B02090C0D0E0879
:1001200007030401000000000000000000000000C0
:1001300000000000000000000000000000000000BF
:10014000000012111000000000000000000000007C
:10015000000000000000000000000000010210206C
:1001600020080810204010204080020102010804ED
:100170000201010204081020408080402010080481
:1001800002018004020180402010080402010804DA
:10019000020101020408102040800102040810201E
:1001A0004080050505050705080808080202020247
:1001B0000A0A080804040404010101010101010103
:1001C0000303030303030303040707070C0C0C0CCE
:1001D0000C0C0C0C020202020606060606060606B7
:1001E0000B0B0B0B0B0B0B0B00002000230026004E
:1001F00029002C002F00320000010000030106013D
:10020000090100002200250028002B002E003100EB
:10021000340002010000050108010B01000021006B
:10022000240027002A002D003000330001010000C7
:10023000040107010A0113047D07A51211241FBE42
:10024000CFEFD1E2DEBFCDBF00E00CBF13E0A0E0F6
:10025000B2E0E8E4F8E200E00BBF02C007900D92C4
:10026000AE35B107D9F725E0AEE5B3E001C01D9288
:10027000A033B207E1F712E0CCE3D2E000E006C021
:1002800022970109FE010BBF0E940814C633D10753
:1002900080E00807A9F70E94D4130C942214B0CE72
:1002A0006115710581F0DB010D900020E9F7AD01CA
:1002B00041505109461B570BDC01ED91FC91028026
:1002C000F381E02D199480E090E0089540E060E033
:1002D00082E694E00E94BE0C6CE172E082E694E05B
:1002E000DFDF60E086E10E94711060E087E10E943C
:1002F000711061E088E10E94711061E089E10E9463
:10030000711061E08CE10E94711061E08FE10E9448
:1003100071108DE00E94A610019719F08AE090E01C
:1003200033C08FE090E030C041E060E082E694E0CE
:100330000E94BE0C60915E0470915F044AE050E040
:1003400082E694E00E94CB1368EE73E080E090E0D8
:100350000E94530F80915E0490915F040A9721F4EC
:1003600082E694E00E94B90C40E060E082E694E00E
:100370000E94BE0C6CE172E082E694E091DF809115
:100380005E0490915F04019790935F0480935E04F4
:1003900080915E0490915F04029734F682E694E0C7
:1003A0000E94B90C40E060E082E694E00E94BE0C3E
:1003B00067E272E082E694E073DF60E086E10E942B
:1003C000711061E087E10E94711060E088E10E9495
:1003D000711060ED77E080E090E00E94530F61E0E3
:1003E00086E10E94711060E087E10E94711060E078
:1003F00088E10E94711082E694E00C94B90C40E010
:1004000060E082E694E00E94BE0C64E372E082E663
:1004100094E046DF60E089E10E94711060E08AE1CB
:100420000E94711061E08BE10E9471108CE00E94CB
:10043000A610019719F08AE090E02DC08FE090E0BF
:100440002AC041E060E082E694E00E94BE0C609128
:100450005E0470915F044AE050E082E694E00E94FE
:10046000CB1368EE73E080E090E00E94530F809120
:100470005E0490915F040A9749F482E694E00E943A
:10048000B90C64E372E082E694E00ADF80915E04D6
:1004900090915F04019790935F0480935E04809134
:1004A0005E0490915F04029764F682E694E00E94F5
:1004B000B90C40E060E082E694E00E94BE0C6FE37D
:1004C00072E082E694E0ECDE60E089E10E94711067
:1004D00061E08AE10E94711060E08BE10E9471107E
:1004E00060ED77E080E090E00E94530F61E089E1E9
:1004F0000E94711060E08AE10E94711060E08BE15F
:100500000E94711082E694E00C94B90C40E060E027
:1005100082E694E00E94BE0C6CE472E082E694E015
:10052000BFDE60E08CE10E94711060E08DE10E940E
:10053000711061E08EE10E9471108BE00E94A610A4
:10054000019719F08AE090E02DC08FE090E02AC07A
:1005500041E060E082E694E00E94BE0C60915E049F
:1005600070915F044AE050E082E694E00E94CB1371
:1005700068EE73E080E090E00E94530F80915E048B
:1005800090915F040A9749F482E694E00E94B90CC6
:100590006CE472E082E694E083DE80915E049091E8
:1005A0005F04019790935F0480935E0480915E04E2
:1005B00090915F04029764F682E694E00E94B90C81
:1005C00040E060E082E694E00E94BE0C67E572E0E5
:1005D00082E694E065DE60E08CE10E94711061E0EB
:1005E0008DE10E94711060E08EE10E94711060ED5B
:1005F00077E080E090E00E94530F61E08CE10E9480
:10060000711060E08DE10E94711060E08EE10E9447
:10061000711082E694E00C94B90C40E060E082E650
:1006200094E00E94BE0C64E672E082E694E038DE5C
:1006300060E08FE10E94711060E080E20E94711022
:1006400061E081E20E9471108AE00E94A610019789
:1006500019F08AE090E02DC08FE090E02AC041E0E0
:1006600060E082E694E00E94BE0C60915E047091AE
:100670005F044AE050E082E694E00E94CB1368EE0B
:1006800073E080E090E00E94530F80915E049091AF
:100690005F040A9749F482E694E00E94B90C64E68C
:1006A00072E082E694E0FCDD80915E0490915F044C
:1006B000019790935F0480935E0480915E04909113
:1006C0005F04029764F682E694E00E94B90C40E071
:1006D00060E082E694E00E94BE0C6FE672E082E683
:1006E00094E0DEDD60E08FE10E94711061E080E265
:1006F0000E94711060E081E20E94711060ED77E06D
:1007000080E090E00E94530F61E08FE10E94711041
:1007100060E080E20E94711060E081E20E9471104E
:1007200082E694E00C94B90C40E060E082E694E04C
:100730000E94BE0C6CE772E082E694E0B1DD60E0FE
:1007400086E10E94711060E087E10E94711061E013
:1007500088E10E94711084E190E090935F0480939F
:100760005E0480915E0490915F0402975CF141E029
:1007700060E082E694E00E94BE0C60915E0470919D
:100780005F044AE050E082E694E00E94CB1368EEFA
:1007900073E080E090E00E94530F80915E0490919E
:1007A0005F040A9749F482E694E00E94B90C6CE772
:1007B00072E082E694E074DD80915E0490915F04C3
:1007C0000197CBCF82E694E00E94B90C40E060E054
:1007D00082E694E00E94BE0C67E272E082E694E05A
:1007E0005FDD60E086E10E94711061E087E10E94B8
:1007F000711060E088E10E94711060ED77E080E0A8
:1008000090E00E94530F61E086E10E94711060E069
:1008100087E10E94711060E088E10E94711082E619
:1008200094E00C94B90CCF92EF920F9387E2C82E0C
:1008300096E2E92E05E224E243E262E282E694E0F7
:100840000E945C0DE12C07E026E045E060ED77E0DA
:100850008EE593E093D30F91EF90CF90089520E031
:1008600042E060E182E694E00E94D60C26E040E897
:1008700055E260E070E083E994E00E94DD1160E001
:100880008DE00E94381060E08CE00E94381060E03B
:100890008BE00E94381060E08AE00E94381061E02E
:1008A00086E10E94381061E087E10E94381061E023
:1008B00088E10E94381061E089E10E94381061E00F
:1008C0008AE10E94381061E08BE10E94381061E0FB
:1008D0008CE10E94381061E08DE10E94381061E0E7
:1008E0008EE10E94381061E08FE10E94381061E0D3
:1008F00080E20E94381061E081E20E9438108EE5AB
:1009000093E04ED7811106C06CE872E083E994E071
:100910000C941B1308950F931F93CF93DF93CDB7C0
:10092000DEB7ED970FB6F894DEBF0FBECDBF809156
:100930005A0490915B04892B09F046C010925D0423
:1009400010925C0480915C0490915D040597B4F56D
:1009500061E087E10E94711061E08AE10E947110FC
:1009600061E08DE10E94711061E080E20E947110EF
:100970006AEF70E080E090E00E94530F60E087E152
:100980000E94711060E08AE10E94711060E08DE1C8
:100990000E94711060E080E20E9471106AEF70E0C6
:1009A00080E090E00E94530F80915C0490915D0480
:1009B000019690935D0480935C04C4CF81E090E045
:1009C00090935B0480935A048CE38E010F5F1F4F5A
:1009D000F801982F11929A95E9F78DAFAE01435C1B
:1009E0005F4FB8018EE593E093D2882359F081E000
:1009F00090E09093610480936004B80183E994E0EF
:100A00000E941B138091600490916104019729F466
:100A10008BDE109261041092600458DCAE01435CDE
:100A20005F4FB8018EE593E073D2882359F081E0DF
:100A300090E09093610480936004B80183E994E0AE
:100A40000E941B138091600490916104019729F426
:100A50006BDE1092610410926004D1DCAE01435C45
:100A60005F4FB8018EE593E053D2882359F081E0BF
:100A700090E09093610480936004B80183E994E06E
:100A80000E941B138091600490916104019729F4E6
:100A90004BDE109261041092600438DDAE01435CBD
:100AA0005F4FB8018EE593E033D2882359F081E09F
:100AB00090E09093610480936004B80183E994E02E
:100AC0000E941B138091600490916104019729F4A6
:100AD0002BDE10926104109260049FDDED960FB63C
:100AE000F894DEBF0FBECDBFDF91CF911F910F9164
:100AF0000895682780E1689F90011124622770E0C3
:100B0000362F2227492F50E0242B352BCB01F4E040
:100B100095958795FA95E1F728273927CB01A3E02A
:100B2000880F991FAA95E1F782279327089581E0FE
:100B30000895FC0165830895FC0164830895FC0118
:100B400062870895FC0163870895FC016487089516
:100B50004095FC0125854223462B45870895FC01DD
:100B600086810895FC0187810895FC0180850895A0
:100B7000FC018185089580E00895CF93DF93EC0117
:100B8000E881F9810280F381E02DCE011995811170
:100B900003C00E94D90EF4CFDF91CF910895CF9377
:100BA000DF93EC018A819B81039719F40E94D90E8F
:100BB000F9CF81E0DF91CF9108958F929F92AF920C
:100BC000BF92CF92DF92EF92FF92CF93DF93EC012F
:100BD0006B010E94240F4B015C01E12CF12C0E945F
:100BE000240F681979098A099B096C157D058E0502
:100BF0009F0560F4E881F9810280F381E02DCE0148
:100C00001995811105C00E94D90EE9CF80E001C07D
:100C100081E0DF91CF91FF90EF90DF90CF90BF9078
:100C2000AF909F908F9008958F929F92AF92BF92B6
:100C3000CF92DF92EF92FF92CF93DF93EC016B01A3
:100C40000E94240F4B015C01E12CF12C0E94240F27
:100C5000681979098A099B096C157D058E059F0520
:100C600038F48A819B81039729F40E94D90EEECF34
:100C700080E001C081E0DF91CF91FF90EF90DF90A5
:100C8000CF90BF90AF909F908F900895FC018CE91A
:100C900092E091838083138212828FEF8483828714
:100CA000838714861586108A1786128A118A148AF9
:100CB000138A08950895089508950895FC01758391
:100CC00064830895FC01778366830895FC01738330
:100CD00062830895FC0188EC92E0918380837383A2
:100CE0006283558344833783268308956EBD000055
:100CF0000DB407FEFDCF8EB508958CB580688CBD10
:100D000008958CB58F778CBD0895FC0130852185C1
:100D100080918804882399F09FB7F8948091880483
:100D2000813059F48DB3809386044DB3809187044C
:100D3000809584238DBB9FBF02C0909386043CBDE9
:100D40002DBD089580918804882361F09FB7F894A1
:100D50002091880480918604213019F48DBB9FBFB7
:100D600008958FBF08956CC5CF92DF92EF92FF92E6
:100D70000F9330E0C12CF2E1DF2EFAE7EF2EF12CD9
:100D80004C155D056E057F0540F4F694E794D79405
:100D9000C7943F5F3630A1F737E041E04327211188
:100DA00002C050E701C050E5242F30E0359527956B
:100DB00023700C70202B252BFC0120834170418374
:100DC0000F91FF90EF90DF90CF9008952CB5982F62
:100DD00093702C7F922B9CBD9DB582FB882780F958
:100DE0009E7F982B9DBD0895EF92FF920F93CF9316
:100DF000DF931F921F92CDB7DEB77C01FC01868185
:100E00009781009771F08130910539F0823091051A
:100E100031F0039731F40CE005C004E003C008E0B2
:100E200001C000E08CB5837F802B8CBDF7018281EF
:100E300093818430910569F08330910579F0823097
:100E4000910589F00197A1F440E854E86EE170E063
:100E500013C040E054E264EF70E00EC040E052E1A5
:100E60006AE770E009C040E059E06DE370E004C05B
:100E700040E452E46FE070E021E0F7018481958165
:100E8000019709F420E0CE0101966EDF89819A81F5
:100E9000F7019187808784819581019719F48CB53A
:100EA000806202C08CB58F7D8CBDF70182819381F9
:100EB00001978430910528F4FC01E452FD4F008134
:100EC00001C001E0802F82DF89D4802F7FDF0F9067
:100ED0000F90DF91CF910F91FF90EF900895CF93F6
:100EE000DF93EC01F7DE84EE92E09983888380E55E
:100EF00088871986DF91CF91089520E030E040E0A7
:100F000050E060E070E08AE794E0E9CF8CE3089578
:100F1000DF92EF92FF920F931F93CF93DF93EC0139
:100F20007B018A01E881F9810280F381E02D199526
:100F3000D82E8823D1F0E114F104B1F00115110588
:100F400099F0FE01E759FF4F90819750F801808199
:100F5000981708F49083F801408150E0BE01665D67
:100F60007F4FC7010E9419141D8E8D2DDF91CF91E7
:100F70001F910F91FF90EF90DF900895AF92BF9275
:100F8000CF92DF92EF920F93CF93DF93CDB7DEB77F
:100F90002A970FB6F894DEBF0FBECDBF6C015B0180
:100FA0002A87498773DE8CEF92E0F6019183808374
:100FB000B68AA58A4985478B2A85208F018FE38EC3
:100FC00088E0E4E1F2E0DE01119601900D928A954D
:100FD000E1F7D601A359BF4F88E0FE013196019099
:100FE0000D928A95E1F72A960FB6F894DEBF0FBEF0
:100FF000CDBFDF91CF910F91EF90DF90CF90BF9059
:10100000AF9008952F923F924F925F926F927F928E
:101010008F929F92AF92BF92CF92DF92EF92FF9208
:101020000F931F93CF93DF9300D01F921F92CDB7E2
:10103000DEB71A013D832C836115710511F4F901A6
:1010400043C06B01E12CF12C83E0CC0CDD1CEE1CC9
:10105000FF1C8A95D1F70AE011E0F1E0FB83812CB7
:1010600094E2992E94EFA92EB12C2A01612C712CB7
:1010700042E050E0B801CE0101960E94101429818F
:101080003A8140E050E0C501B4010E94E013CA017A
:10109000B901A70196010E94E013223031054105F4
:1010A000510528F0241535054605570540F08B817C
:1010B0008F5F8B830E5F1F4F8730D1F609C0EB81A6
:1010C000E63059F4EC81FD811182108280E012C07B
:1010D0002230310541055105A8F3C101A0E0B0E07F
:1010E00082179307A407B50768F3EC81FD8131836C
:1010F00020838B810F900F900F900F900F90DF91B6
:10110000CF911F910F91FF90EF90DF90CF90BF9004
:10111000AF909F908F907F906F905F904F903F9097
:101120002F900895CF93DF931F921F92CDB7DEB714
:10113000FC01658976899E012F5F3F4F4FEF5FEF7E
:1011400061DF8823A9F01092800098E090938100DD
:1011500090918100982B9093810089819A8190933E
:1011600089008093880080916F00826080936F0077
:101170000F900F90DF91CF910895CF93DF93EC0103
:101180008F89E4D721E0892B09F420E08A8D82271A
:10119000DF91CF910895FC01808DA3C7FC01238DC1
:1011A0006227818D9EC7CF93DF93EC018A819B815B
:1011B000029751F060E0CE01F1DF60E0CE01EBDF9D
:1011C00082E090E09B838A83DF91CF910895CF9353
:1011D000DF93EC018A819B81049751F060E0CE019E
:1011E000DDDF60E0CE01D7DF84E090E09B838A837F
:1011F000DF91CF910895CF93DF93EC018A819B819A
:10120000039779F0FE01E659FF4F10823196108264
:101210003196108261E0CE01C1DF83E090E09B83D4
:101220008A83DF91CF9108956F927F929F92AF92C0
:10123000BF92CF92DF92EF92FF920F931F93CF93C3
:10124000DF931F921F92CDB7DEB73C01B62E4D3310
:1012500008F00DC17C0125E7E20EF11CDC01ED91E7
:10126000FC910484F585E02D4A83798319954A81A0
:1012700017E0140F612F8FEF9FEF3BDCE12FF0E0C1
:10128000A4E0F595E795AA95E1F7EC5DFC4F208188
:10129000F70120831F70E12FF0E0EC5DFC4F20810F
:1012A000F301EA58FF4F2083D3011A966C9121DC99
:1012B000F3012285E22FF0E0B4E0F595E795BA95C9
:1012C000E1F7EC5DFC4F3081D301A958BF4F3C934F
:1012D0002F70E22FF0E0EC5DFC4F2081F301E85825
:1012E000FF4F2083D3011B966C9103DCF301238510
:1012F000E22FF0E014E0F595E7951A95E1F7EC5D43
:10130000FC4F3081D301A758BF4F3C932F70E22F81
:10131000F0E0EC5DFC4F2081F301E658FF4F2083A5
:10132000D3011C966C91E5DBF3012485E22FF0E0FC
:1013300004E0F595E7950A95E1F7EC5DFC4F308107
:10134000D301A558BF4F3C932F70E22FF0E0EC5D26
:10135000FC4F2081F301E458FF4F2083D3011D96F9
:101360006C91C7DBF3012585E22FF0E034E0F595C1
:10137000E7953A95E1F7EC5DFC4F3081D301A35836
:10138000BF4F3C932F70E22FF0E0EC5DFC4F2081CB
:10139000F301E258FF4F20839B2C6301F0E8CF0E4E
:1013A000D11C0B2D7981172F4A81202F2919241741
:1013B00010F55801D8016C914A839BDBF6013197F7
:1013C000D8012D918D01A22FB0E074E0B595A795BD
:1013D0007A95E1F7AC5DBC4F2C912083D501EC915F
:1013E000EF70F0E0EC5DFC4F2081F6012083F2E02D
:1013F000CF0ED11CD9CF50E04B5F5F4F440F551F2C
:1014000080959095E40EF51EDC0134E0B695A79525
:101410003A95E1F7AF70BB27AC5DBC4F2C91D7017B
:101420002C93FC01EF70FF27EC5DFC4F208111969F
:101430002C931197FC01EF2FFF27E295EF70EC5DE5
:10144000FC4F208112962C931297E92FFF27EF7003
:10145000FF27EC5DFC4F808113968C93F301E550E0
:10146000FF4F445F4083C301C6DE81E001C080E0DE
:101470000F900F90DF91CF911F910F91FF90EF9000
:10148000DF90CF90BF90AF909F907F906F90089526
:10149000862F86958695887098E0980F891749F071
:1014A000E82FF0E0EC5DFC4F2081621719F08F5FB0
:1014B000F5CF80E00895FF920F931F93CF93DF93B2
:1014C000EC01F12C8FEF9FEF8E0107591F4FF801B0
:1014D0002081F21638F4FE01EF0DF11D65A109DB44
:1014E000F394F5CF883B904F39F08F85988901961A
:1014F000988B8F871D8E19C08EA18E838FA18F83AD
:1015000088A5888789A589878D81811107C09E81DB
:101510008C81981719F08E818F3F39F489899A89C7
:1015200001969A8B898B81E08D8FDF91CF911F91EE
:101530000F91FF900895CF93DF93EC018A819B81F7
:10154000039751F0CE0143DE8C8D882319F0CE0134
:10155000B2DF1C8E8D8D01C080E0DF91CF910895A8
:101560001F93CF93DF93EC0108DE882319F09F8D42
:101570009F5F9F8F9E8D891771F098A1903518F409
:101580002BE030E002C02DE130E098A1290F311DA1
:1015900028A38E8F03C088A18C5E88A388A1803A7F
:1015A00008F46BC08AA19BA1969587959BA38AA3FB
:1015B0008F8D853028F08AA19BA198609BA38AA378
:1015C00088A1805A88A31F8E89A1882309F443C06B
:1015D0008CA18F5F8CA38C3008F44FC06AA17BA1D3
:1015E0006F73CE0155DF182F6AA17BA146E0769577
:1015F00067954A95E1F7CE014BDF90E1199F900185
:101600001124822BBE0167597F4FFB019081DE01BF
:10161000A859BF4F9923A9F0FB01908121E0290F20
:101620002083AE01490F511DFA0185A3FB01908172
:101630008C91981770F019A281E08C8FCE01B3DDE8
:1016400008C08C939C91973090F09C91943478F4DE
:10165000E3CF1CA212C08AA19BA188339B4069F4EE
:1016600081E089A31CA2C759DF4F188206C019A2C6
:101670008F8598890196988B8F87DF91CF911F91E5
:101680000895CF92DF92EF92FF920F931F93CF9323
:10169000DF93EC018C0104591F4FF801808191E028
:1016A000980F9083811134C06E01FAE6CF0ED11CE1
:1016B000F6018081EF56FF4F9081891740F0CE01EF
:1016C00072DD8B899C8901969C8B8B8B21C0FE01DE
:1016D000E80FF11DE359FF4F608170E07E01FBE6EA
:1016E000EF0EF11CF701808191E0980F908302C00A
:1016F000759567958A95E2F76170CE014CDDF7012B
:101700008081863028F01082F60180818F5F80838F
:10171000F8018081883008F01082DF91CF911F910D
:101720000F91FF90EF90DF90CF900895FC01228100
:1017300033812430310509F413CFFC012281338138
:101740002330310509F49DCF08951F920F920FB6F3
:101750000F9211240BB60F922F933F934F935F93E9
:101760006F937F938F939F93AF93BF93EF93FF9369
:101770008091840490918504D9DFFF91EF91BF910E
:10178000AF919F918F917F916F915F914F913F9119
:101790002F910F900BBE0F900FBE0F901F901895BA
:1017A0001F93CF93DF93EC01C2D9182F882389F0C0
:1017B000D0938504C093840461E0888D59D460E09F
:1017C0008F8956D461E0898D53D4CE01ECDCCE01F3
:1017D000A9DC812FDF91CF911F910895CF93CFB7CF
:1017E000F89480918904811123C0E7EDF1E08491A0
:1017F000E1E9F1E09491E82FF0E0EE0FFF1FE45EE5
:10180000FD4FA591B4918C91892319F461E085E392
:1018100068D461E085E32CD48CB580618CBD8CB537
:1018200080648CBD61E084E323D461E083E320D451
:10183000809189048F5F80938904CFBFCF910895F1
:101840009FB7F89480918904882319F08150809380
:10185000890480918904811105C08CB58F7B8CBD72
:10186000109288049FBF0895CF93DF93EC0160E04E
:101870008E8137D481E090E03BD361E08E8131D41A
:1018800081E090E035D360E08E812BD484E690E057
:10189000DF91CF912DC3EF92FF920F931F93CF93C0
:1018A000DF938C01C0E0D0E0E62EF12CB7010C2EC6
:1018B00002C0759567950A94E2F76170F801EC0F24
:1018C000FD1F87810ED42196C430D10579F7C80158
:1018D000DF91CF911F910F91FF90EF90C5CFEF92C5
:1018E000FF920F931F93CF93DF938C01C0E0D0E062
:1018F000E62EF12CB7010C2E02C0759567950A945F
:10190000E2F76170F801EC0FFD1F8781EAD32196A1
:10191000C830D10579F7C801DF91CF911F910F91A0
:10192000FF90EF90A1CF1F93CF93DF93EC01162F81
:10193000642F8C81D6D38D818F3F11F060E0D1D39D
:101940008F85612F84FF05C0CE01DF91CF911F915C
:10195000C6CF70E084E0759567958A95E1F7CE0172
:101960009ADF612FCE01DF91CF911F9194CF40E09C
:10197000DACF61E0FCDF80ED97E0BAC2443008F0D6
:1019800043E0FC012389421710F04FEF420FFC01A6
:10199000E40FF11D2489260F2068622FE8CFFC0197
:1019A0006089262F2460208B6C60E1CF0F931F93FA
:1019B000CF93DF93EC01423018F08F8588608F87DA
:1019C0004B8B1C8A80E48D8B6E8B70E0605C7F4F4C
:1019D0006F8B222329F0413019F48F8584608F8723
:1019E00061E08C8145D38D818F3F11F061E040D360
:1019F00061E08E813DD300E010E08F8584FF03C05D
:101A000088E090E002C084E090E0081719074CF4E9
:101A1000FE01E00FF11F61E087812AD30F5F1F4FA6
:101A2000ECCF80E593EC64D260E08C815AD360E027
:101A30008E8157D38D818F3F11F060E052D36F8537
:101A400064FD16C063E0CE0126DF84E991E150D247
:101A500063E0CE0120DF84E991E14AD263E0CE0168
:101A60001ADF86E990E044D262E0CE0114DF11C0B3
:101A70006062CE017CDF84E991E13AD26F856062D9
:101A8000CE0175DF86E990E033D26F856062CE01CA
:101A90006EDF6F856062CE016ADF84E0888BCE01E5
:101AA0007EDFCE0166DF82E0898B66E0CE01DF91CA
:101AB000CF911F910F915BCFCF92EF920F93FC01CB
:101AC0001382128288E393E09183808364838FEF93
:101AD0008583468327830087E186C2861386148622
:101AE00015861686178620E041E060E1CF010F9150
:101AF000EF90CF905BCF41E016DF81E090E008955A
:101B000008951F920F920FB60F9211240BB60F92E9
:101B10002F933F934F935F936F937F938F939F93F5
:101B2000AF93BF93EF93FF93E0910802F091090206
:101B30001995FF91EF91BF91AF919F918F917F91F7
:101B40006F915F914F913F912F910F900BBE0F902E
:101B50000FBE0F901F9018951F920F920FB60F9205
:101B600011240BB60F922F933F934F935F936F9374
:101B70007F938F939F93AF93BF93EF93FF93E091E6
:101B80000A02F0910B021995FF91EF91BF91AF916D
:101B90009F918F917F916F915F914F913F912F9185
:101BA0000F900BBE0F900FBE0F901F9018951F92B5
:101BB0000F920FB60F9211240BB60F922F933F93F3
:101BC0004F935F936F937F938F939F93AF93BF9345
:101BD000EF93FF93E0910C02F0910D021995FF91A4
:101BE000EF91BF91AF919F918F917F916F915F9195
:101BF0004F913F912F910F900BBE0F900FBE0F9002
:101C00001F9018951F920F920FB60F9211240BB6CA
:101C10000F922F933F934F935F936F937F938F9385
:101C20009F93AF93BF93EF93FF93E0910E02F091D8
:101C30000F021995FF91EF91BF91AF919F918F91F5
:101C40007F916F915F914F913F912F910F900BBEBC
:101C50000F900FBE0F901F9018951F920F920FB606
:101C60000F9211240BB60F922F933F934F935F93D4
:101C70006F937F938F939F93AF93BF93EF93FF9354
:101C8000E0910402F09105021995FF91EF91BF9147
:101C9000AF919F918F917F916F915F914F913F9104
:101CA0002F910F900BBE0F900FBE0F901F901895A5
:101CB0001F920F920FB60F9211240BB60F922F9313
:101CC0003F934F935F936F937F938F939F93AF93C4
:101CD000BF93EF93FF93E0910602F09107021995ED
:101CE000FF91EF91BF91AF919F918F917F916F91F4
:101CF0005F914F913F912F910F900BBE0F900FBEB0
:101D00000F901F9018951F920F920FB60F921124EB
:101D10000BB60F922F933F934F935F936F937F93E5
:101D20008F939F93AF93BF93EF93FF93E091100234
:101D3000F09111021995FF91EF91BF91AF919F9191
:101D40008F917F916F915F914F913F912F910F9064
:101D50000BBE0F900FBE0F901F9018951F920F9201
:101D60000FB60F9211240BB60F922F933F934F9300
:101D70005F936F937F938F939F93AF93BF93EF93F3
:101D8000FF93E0911202F09113021995FF91EF91E8
:101D9000BF91AF919F918F917F916F915F914F9183
:101DA0003F912F910F900BBE0F900FBE0F901F9081
:101DB000189508951F920F920FB60F9211242F932A
:101DC0003F938F939F93AF93BF9380918B04909198
:101DD0008C04A0918D04B0918E0430918A0423E08C
:101DE000230F2D3720F40196A11DB11D05C026E853
:101DF000230F0296A11DB11D20938A0480938B04AA
:101E000090938C04A0938D04B0938E0480918F04E2
:101E100090919004A0919104B09192040196A11D1B
:101E2000B11D80938F0490939004A0939104B0937C
:101E30009204BF91AF919F918F913F912F910F90FD
:101E40000FBE0F901F9018952FB7F89460918B04D8
:101E500070918C0480918D0490918E042FBF089511
:101E60003FB7F89480918F0490919004A0919104D1
:101E7000B091920426B5A89B05C02F3F19F001969A
:101E8000A11DB11D3FBF6627782F892F9A2F620FA2
:101E9000711D811D911D42E0660F771F881F991FDC
:101EA0004A95D1F70895CF92DF92EF92FF92CF93A8
:101EB000DF936B017C01D4DFEB01C114D104E10499
:101EC000F10479F076DFCCDF6C1B7D0B683E73404C
:101ED000A0F381E0C81AD108E108F108C851DC4F2D
:101EE000ECCFDF91CF91FF90EF90DF90CF900895EE
:101EF0008230910538F0880F991F880F991F059738
:101F00000197F1F70895789484B5826084BD84B513
:101F1000816084BD85B5826085BD85B5816085BDE4
:101F2000EEE6F0E0808181608083E1E8F0E01082FD
:101F3000808182608083808181608083E0E8F0E03E
:101F4000808181608083E1EBF0E080818460808328
:101F5000E0EBF0E0808181608083E1E9F0E0808166
:101F600082608083808181608083E0E9F0E080810D
:101F700081608083E1EAF0E08081826080838081FB
:101F800081608083E0EAF0E0808181608083E1E22B
:101F9000F1E0808182608083808181608083E0E2E3
:101FA000F1E0808181608083EAE7F0E080818460F5
:101FB0008083808182608083808181608083808152
:101FC000806880831092C100089590E0FC013197F1
:101FD000E231F10508F04BC0EE58FF4F13C4809179
:101FE00080008F7703C0809180008F7D8093800078
:101FF000089580918000877FF9CF84B58F7702C0E4
:1020000084B58F7D84BD08958091B0008F7703C023
:102010008091B0008F7D8093B000089580919000F2
:102020008F7707C0809190008F7D03C080919000D2
:10203000877F8093900008958091A0008F7707C0DC
:102040008091A0008F7D03C08091A000877F809346
:10205000A0000895809120018F7707C08091200112
:102060008F7D03C080912001877F80932001089598
:10207000CF93DF9390E0FC01E45AFE4F2491FC01E2
:10208000EE55FE4F8491882349F190E0880F991F07
:10209000FC01E45EFD4FA591B4918E5F9D4FFC0164
:1020A000C591D4919FB7611108C0F8948C91209587
:1020B00082238C93888182230AC0623051F4F89481
:1020C0008C91322F309583238C938881822B888347
:1020D00004C0F8948C91822B8C939FBFDF91CF9199
:1020E00008950F931F93CF93DF931F92CDB7DEB761
:1020F000282F30E0F901EA5EFE4F8491F901E45A9D
:10210000FE4F1491F901EE55FE4F04910023C1F0EA
:10211000882319F0698359DF6981E02FF0E0EE0F21
:10212000FF1FEE5FFD4FA591B4919FB7F8948C917E
:10213000611103C01095812301C0812B8C939FBF37
:102140000F90DF91CF911F910F910895CF93DF935F
:10215000282F30E0F901EA5EFE4F8491F901E45A3C
:10216000FE4FD491F901EE55FE4FC491CC2389F076
:1021700081112BDFEC2FF0E0EE0FFF1FE851FE4F37
:10218000A591B4912C912D2381E090E021F480E081
:1021900002C080E090E0DF91CF910895FC01818D35
:1021A000228D90E0805C9F4F821B91098F7399274D
:1021B0000895FC01918D828D981731F0828DE80F82
:1021C000F11D858D90E008958FEF9FEF0895FC013C
:1021D000918D828D981761F0828DDF01A80FB11D5E
:1021E0005D968C91928D9F5F9F73928F90E0089582
:1021F0008FEF9FEF08958CE992E1892B39F080E011
:1022000090E0892B19F098D1811125C080E090E0F1
:10221000892B41F080E090E0892B21F00E940000A2
:1022200081111CC080E090E0892B41F080E090E0BB
:10223000892B21F00E940000811113C080E090E002
:10224000892BA1F080E090E0892B81F00E940000B2
:1022500081110AC008950E940000D8CF0E9400009A
:10226000E1CF0E940000EACF0C9400000895FC0129
:10227000848DDF01A80FB11DA35ABF4F2C91848D0F
:1022800090E001968F739927848FA689B7892C9344
:10229000A089B1898C9180648C93938D848D9813DF
:1022A00006C00288F389E02D80818F7D80830895A8
:1022B000CF93DF93EC01888D8823C1F0EA89FB89F5
:1022C000808185FD05C0A889B9898C9186FD0EC0E5
:1022D0000FB607FCF5CF808185FFF2CFA889B989B9
:1022E0008C9185FFEDCFCE01C2DFE8CFDF91CF919A
:1022F0000895CF92DF92FF920F931F93CF93DF93B6
:102300001F92CDB7DEB76C0181E0D60158968C9351
:1023100058975B969C915B975C968C915C97981311
:1023200007C05096ED91FC915197808185FD2DC09D
:10233000F601038D10E00F5F1F4F0F731127F02E72
:10234000F601848DF81210C00FB607FCF9CFD60144
:102350005096ED91FC915197808185FFF1CFC60198
:10236000698385DF6981ECCF838DE80FF11DE35A26
:10237000FF4F6083D6015B960C935B975296ED916D
:10238000FC915397808180620CC0D6015696ED91E6
:10239000FC91579760835096ED91FC915197808105
:1023A0008064808381E090E00F90DF91CF911F9156
:1023B0000F91FF90DF90CF900895BF92CF92DF9260
:1023C000EF92FF92CF93DF93EC016A017B01B22E73
:1023D000E889F98982E08083411581EE580761051B
:1023E000710599F060E079E08DE390E0A701960136
:1023F000E7D1215031094109510956954795379543
:102400002795211580E1380790F0E889F989108235
:1024100060E874E88EE190E0A7019601D1D12150E7
:102420003109410951095695479537952795EC850E
:10243000FD853083EE85FF852083188EEC89FD892C
:10244000B082EA89FB89808180618083EA89FB8987
:10245000808188608083EA89FB89808180688083AD
:10246000EA89FB8980818F7D8083DF91CF91FF9006
:10247000EF90DF90CF90BF9008951F920F920FB60C
:102480000F9211240BB60F922F938F939F93EF937C
:10249000FF93E091A304F091A4048081E091A9044A
:1024A000F091AA0482FD12C090818091AC048F5FEC
:1024B0008F732091AD04821751F0E091AC04F0E0ED
:1024C000ED56FB4F958F8093AC0401C08081FF9146
:1024D000EF919F918F912F910F900BBE0F900FBE98
:1024E0000F901F9018951F920F920FB60F92112404
:1024F0000BB60F922F933F934F935F936F937F93FE
:102500008F939F93AF93BF93EF93FF9383E994E0EF
:10251000AEDEFF91EF91BF91AF919F918F917F912F
:102520006F915F914F913F912F910F900BBE0F9044
:102530000FBE0F901F90189583E994E02FDE21E0E5
:10254000892B09F420E0822F0895109296041092AE
:10255000950488EE93E0A0E0B0E080939704909318
:102560009804A0939904B0939A0480E493E0909324
:1025700094048093930485EC90E09093A00480935E
:102580009F0484EC90E09093A2048093A10480ECDB
:1025900090E09093A4048093A30481EC90E0909346
:1025A000A6048093A50482EC90E09093A804809305
:1025B000A70486EC90E09093AA048093A90410925B
:1025C000AC041092AD041092AE041092AF040895C2
:1025D000CF92DF92EF92FF920F931F93CF93DF93EF
:1025E0007C016A01EB0100E010E00C151D0571F0A3
:1025F0006991D701ED91FC910190F081E02DC70127
:102600001995892B19F00F5F1F4FEFCFC801DF918C
:10261000CF911F910F91FF90EF90DF90CF90089591
:10262000DC01ED91FC910190F081E02D19946CE4B6
:1026300073E00C9450010F931F93CF93DF93EC0141
:102640000E9450018C01CE01F2DF800F911FDF91BB
:10265000CF911F910F9108958F929F92AF92BF9249
:10266000CF92DF92EF92FF920F931F93CF93DF935E
:10267000CDB7DEB7A1970FB6F894DEBF0FBECDBFC2
:102680007C01C42EE52FCB01D22E19A221E02D15FD
:1026900010F02AE0D22E8E010F5D1F4F8D2C912C51
:1026A000A12CB12C6C2D7E2FA501940189D08C2DED
:1026B000D29E80191124015011098A3014F4805DD2
:1026C00001C0895CF8018083211531054105510560
:1026D00021F0C22EE32FCA01E5CFB801C7010E9445
:1026E0005001A1960FB6F894DEBF0FBECDBFDF91AB
:1026F000CF911F910F91FF90EF90DF90CF90BF90FF
:10270000AF909F908F900895CF92DF92EF92FF92BB
:102710000F931F93CF93DF93EC016A017B01211587
:10272000310579F4E881F9810190F081E02D642F81
:10273000DF91CF911F910F91FF90EF90DF90CF909D
:1027400019942A303105D9F477FF18C06DE268DF9B
:102750008C0144275527BA014C195D096E097F0980
:102760002AE0CE0179DF800F911FDF91CF911F9179
:102770000F91FF90EF90DF90CF9008952AE0B7017E
:10278000A601CE01DF91CF911F910F91FF90EF90A5
:10279000DF90CF9061CF9A01AB01662757FD60951E
:1027A000762FB2CF39D00895AEDBFDDF0E942F0423
:1027B000CBEFD0E10E948B042097E1F31CDDFACF30
:1027C000A1E21A2EAA1BBB1BFD010DC0AA1FBB1F35
:1027D000EE1FFF1FA217B307E407F50720F0A21BA7
:1027E000B30BE40BF50B661F771F881F991F1A9414
:1027F00069F760957095809590959B01AC01BD013E
:10280000CF010895EE0FFF1F0590F491E02D19946C
:102810000790F691E02D199481E090E0F89412C0B1
:10282000FB01DC0102C005900D9241505040D8F7E9
:102830000895FB01DC0102C001900D92415050400F
:08284000D8F70895F894FFCFCA
:1028480001000000800D800D800D800D800D800D31
:10285800800D800D2A2A2A2A2A2A382C57415920E5
:1028680031203A20474F005741592031203A205310
:10287800544F50005741592032203A20474F0057B3
:1028880041592032203A2053544F50005741592083
:1028980033203A20474F005741592033203A2053DC
:1028A800544F50005741592034203A20474F005781
:1028B80041592034203A2053544F50005741592051
:1028C8003120454D455247454E435900696E69745C
:1028D800206661696C656400000000009705D213EA
:1028E800D213D213D213BD05CF051406DD059C05FE
:1028F8009F05A205A505A8059905AF05B205B5056B
:10290800B805BB0500000000D2135A065B06D213B7
:10291800D2135E06620666065C065D0605000404C0
:102928000000000076067D068106F406B3065E0602
:10293800620666068506A20600000000D00B9B0A08
:10294800880714098607BD05CF051406DD059C0513
:102958009F05A205A505A8059905AF05B205B5050A
:10296800B805BB050D0E131516191A1C23252629A3
:102978002A2C3234000000007B0DE8120000000011
:102988007911E812CE10E710D91058110D0A006E0F
:0E299800616E00696E66006F7666002E0000AC
:020000023000CC
:10E000000D9489F10D94B2F10D94B2F10D94B2F129
:10E010000D94B2F10D94B2F10D94B2F10D94B2F1F0
:10E020000D94B2F10D94B2F10D94B2F10D94B2F1E0
:10E030000D94B2F10D94B2F10D94B2F10D94B2F1D0
:10E040000D94B2F10D94B2F10D94B2F10D94B2F1C0
:10E050000D94B2F10D94B2F10D94B2F10D94B2F1B0
:10E060000D94B2F10D94B2F10D94B2F10D94B2F1A0
:10E070000D94B2F10D94B2F10D94B2F10D94B2F190
:10E080000D94B2F10D94B2F10D94B2F10D94B2F180
:10E090000D94B2F10D94B2F10D94B2F10D94B2F170
:10E0A0000D94B2F10D94B2F10D94B2F10D94B2F160
:10E0B0000D94B2F10D94B2F10D94B2F10D94B2F150
:10E0C0000D94B2F10D94B2F10D94B2F10D94B2F140
:10E0D0000D94B2F10D94B2F10D94B2F10D94B2F130
:10E0E0000D94B2F141546D656761323536300041AF
:10E0F000726475696E6F206578706C6F72657220DE
:10E1000073746B3530305632206279204D4C530099
:10E11000426F6F746C6F616465723E004875683F52
:10E1200000436F6D70696C6564206F6E203D200048
:10E130004350552054797065202020203D20005FF9
:10E140005F4156525F415243485F5F3D2000415658
:10E1500052204C696243205665723D20004743437C
:10E160002056657273696F6E203D20004350552024
:10E1700049442020202020203D20004C6F7720663D
:10E18000757365202020203D20004869676820665F
:10E190007573652020203D200045787420667573D6
:10E1A00065202020203D20004C6F636B2066757336
:10E1B000652020203D20004D617220203720323024
:10E1C000313300312E362E3800342E332E350056A2
:10E1D00023202020414444522020206F7020636F70
:10E1E00064652020202020696E73747275637469E1
:10E1F0006F6E2061646472202020496E74657272B3
:10E20000757074006E6F20766563746F7200726A49
:10E210006D702020006A6D70200057686174207056
:10E220006F72743A00506F7274206E6F7420737541
:10E2300070706F72746564004D7573742062652030
:10E2400061206C6574746572002000577269747483
:10E25000696E672045450052656164696E672045B7
:10E26000450045452065727220636E743D00504F35
:10E27000525400303D5A65726F2061646472003FF1
:10E280003D43505520737461747300403D454550C3
:10E29000524F4D207465737400423D426C696E6B41
:10E2A000204C454400453D44756D70204545505215
:10E2B0004F4D00463D44756D7020464C415348001B
:10E2C000483D48656C70004C3D4C69737420492F83
:10E2D0004F20506F72747300513D51756974005234
:10E2E0003D44756D702052414D00563D73686F7707
:10E2F00020696E7465727275707420566563746FF0
:10E30000727300593D506F727420626C696E6B00BD
:10E310002A0011241FBECFEFD1E2DEBFCDBF01E046
:10E320000CBF12E0A0E0B2E0EEE1FDEF03E00BBFB6
:10E3300002C007900D92A030B107D9F712E0A0E01B
:10E34000B2E001C01D92AE30B107E1F70F9460F367
:10E350000D948DFE01E20EBF0FEF0DBF11241FBE05
:10E360000D9460F30D9400F020E030E040ED57E0B4
:10E3700005C0FA013197F1F72F5F3F4F2817390792
:10E38000C0F308959C01260F311DC901A0E0B0E043
:10E390002F5F3F4FABBFFC018791882361F08093D3
:10E3A000C6008091C00086FFFCCF8091C0008064D1
:10E3B0008093C000EACF08958DE08093C6008091DD
:10E3C000C00086FFFCCF8091C00080648093C000B5
:10E3D0008AE08093C6008091C00086FFFCCF8091C8
:10E3E000C00080648093C00008950F94C2F10F9420
:10E3F000DCF10895FC019081992359F09093C600B7
:10E400008091C00086FFFCCF8091C0008064809323
:10E41000C0003196992379F70895282F982F929567
:10E420009F70892F805D8A3308F0895F8093C600D2
:10E430008091C00086FFFCCF8091C00080648093F3
:10E44000C000822F8F70982F905D9A3308F0995FEB
:10E450009093C6008091C00086FFFCCF8091C000E1
:10E4600080648093C00008959C01FB01853691056E
:10E470001CF46330710594F0C90164E670E00F94F8
:10E480002EFE605D7F4F6093C6008091C00086FFC6
:10E49000FCCF8091C00080648093C0002B30310598
:10E4A00014F43297B4F0C90164E670E00F942EFEC4
:10E4B0006AE070E00F942EFE605D7F4F6093C600AF
:10E4C0008091C00086FFFCCF8091C0008064809363
:10E4D000C000C9016AE070E00F942EFEC0968093E0
:10E4E000C6008091C00086FFFCCF8091C000806490
:10E4F0008093C00008951F93182F8EE692EE60E07F
:10E500000F94C2F11093C6008091C00086FFFCCF2B
:10E510008091C00080648093C0000F94DCF11F9153
:10E5200008952F923F924F925F926F927F928F92B7
:10E530009F92AF92BF92CF92DF92EF92FF920F9392
:10E540001F93DF93CF93CDB7DEB762970FB6F894E2
:10E55000DEBF0FBECDBF382E622ECA01DB015C01CB
:10E560006D01772420E2222E2E010894411C511CBB
:10E570008BC081E0A81680E0B80681E0C80680E084
:10E58000D80628F0C601AA27BB270F940DF2BB2797
:10E59000AD2D9C2D8B2D0F940DF28A2D0F940DF225
:10E5A0002092C6008091C00086FFFCCF8091C00001
:10E5B00080648093C0009DE29093C6008091C0006B
:10E5C00086FFFCCF8091C00080648093C0002092C1
:10E5D000C6008091C00086FFFCCF8091C00080649F
:10E5E0008093C00019828601750188249924A1E0D6
:10E5F0003A1651F03A1620F0B2E03B1661F409C029
:10E600000BBFF701779007C0C7010F9477FE782EF4
:10E6100002C0F7017080872D0F940DF22092C60082
:10E620008091C00086FFFCCF8091C0008064809301
:10E63000C000872D8052F401EF70F0708F3520F408
:10E64000E40DF51D708204C0E40DF51D8EE280839B
:10E650000894E11CF11C011D111D0894811C911CE2
:10E6600090E18916910409F0C2CF80E190E0A0E02A
:10E67000B0E0A80EB91ECA1EDB1E198AC2010F9493
:10E68000FAF10F94DCF16A94662009F072CF629679
:10E690000FB6F894DEBF0FBECDBFCF91DF911F91B3
:10E6A0000F91FF90EF90DF90CF90BF90AF909F9031
:10E6B0008F907F906F905F904F903F902F90089534
:10E6C0002F923F924F925F926F927F928F929F9282
:10E6D000AF92BF92CF92DF92EF92FF920F931F9370
:10E6E000DF93CF93CDB7DEB7CD53D1400FB6F894BB
:10E6F000DEBF0FBECDBF01E20EBF0FEF0DBF94B75F
:10E70000F894A89514BE80916000886180936000A1
:10E7100010926000789493FF05C0E0910002F091A0
:10E7200001021995279A2F9A8091C00082608093E8
:10E73000C00080E18093C40088E18093C1000000A4
:10E74000EE24FF24870144E0A42EB12CCC24DD2448
:10E7500024C0C5010197F1F70894E11CF11C011DCB
:10E76000111D21E2E2162EE4F20620E0020720E06D
:10E77000120718F031E0C32ED12CC801B70127ECE5
:10E780003BE140E050E00F9441FE611571058105C9
:10E79000910519F485B1805885B98091C00087FD35
:10E7A00003C0C114D104A9F2A6014F5F5F4FC25E3E
:10E7B000DE4F59834883CE51D140C25EDE4F8881FF
:10E7C0009981CE51D140019711F00D9410FEC05D9A
:10E7D000DE4F19821882C053D14060E0C15DDE4F28
:10E7E0001882CF52D14088249924C35DDE4F19820C
:10E7F0001882CD52D140C05EDE4F188219821A8233
:10E800001B82C052D140CE5CDE4F188219821A8220
:10E810001B82C253D140EE24FF2487010BBFF701B6
:10E8200007911691C45CDE4F19830883CC53D14005
:10E830000D940BFEC25EDE4F28813981CE51D1404E
:10E840002130310509F52091C600C25EDE4F1982E4
:10E850001882CE51D14022C02F5F3F4F4F4F5F4FA4
:10E86000213082E138078AE7480780E0580780F0C6
:10E87000C45CDE4FE881F981CC53D140EF5FFF4F9C
:10E8800019F0EE27FF27099420E030E040E050E047
:10E890008091C00087FFE0CF2091C600C35DDE4FAE
:10E8A00048815981CD52D1404F5F5F4FC35DDE4FEC
:10E8B00059834883CD52D140213209F063C64A3092
:10E8C000510508F05FC60894811C911C53E0851621
:10E8D000910409F059C600E010E018C081E280936D
:10E8E000C6008091C00086FFFCCF8091C00080648C
:10E8F0008093C0002F5F3F4F2931310579F70F9486
:10E90000DCF10F5F1F4F0530110519F020E030E0FA
:10E91000E5CF10920A0210920B0210920C02109294
:10E920000D02109206021092070210920802109235
:10E930000902109202021092030210920402109235
:10E9400005028FEE90EE60E00F94F5F180E191EE1C
:10E9500060E00F94C2F18091C00087FFFCCF9091DE
:10E96000C600903608F09F759032B8F09093C600BC
:10E970008091C00086FFFCCF8091C00080648093AE
:10E98000C000A0E2A093C6008091C00086FFFCCF2B
:10E990008091C00080648093C000983409F4D7C18E
:10E9A0009934B8F4923409F459C1933458F490333B
:10E9B00019F1903308F4E3C59F33A1F1903409F0C5
:10E9C000DEC5BDC0953409F470C1963409F0D7C5D1
:10E9D00098C1923509F42BC2933538F49C3409F46C
:10E9E000F5C1913509F0CBC518C2963509F445C279
:10E9F000993509F0C4C567C483E792EE62E00F94CD
:10EA0000F5F110920602109207021092080210927D
:10EA1000090210920A0210920B0210920C0210923C
:10EA20000D0213C18FE792EE62E00F94F5F18FEEC5
:10EA300090EE60E00F94F5F181E291EE60E00F94CA
:10EA4000C2F187EB91EE60E00F94F5F180E391EE77
:10EA500060E00F94C2F184EE90EE60E00F94F5F167
:10EA60008FE391EE60E00F94C2F186E090E061E008
:10EA700070E00F9434F20F94DCF18DE591EE60E0DC
:10EA80000F94C2F189EC91EE60E00F94F5F18EE401
:10EA900091EE60E00F94C2F183EC91EE60E00F9490
:10EAA000F5F18CE691EE60E00F94C2F18EE10F94E7
:10EAB0000DF288E90F940DF281E00F940DF20F949E
:10EAC000DCF18BE791EE60E00F94C2F119E0E0E039
:10EAD000F0E010935700E4918E2F0F940DF20F94F5
:10EAE000DCF18AE891EE60E00F94C2F1E3E0F0E03F
:10EAF00010935700E4918E2F0F940DF20F94DCF1D8
:10EB000089E991EE60E00F94C2F1E2E0F0E0109349
:10EB10005700E4918E2F0F940DF20F94DCF188EAE8
:10EB200091EE60E00F94C2F1E1E0F0E01093570045
:10EB30001491812F0F940DF20F94DCF107CF8BE825
:10EB400092EE62E00F94F5F18BE492EE60E00F94A8
:10EB5000F5F10F94DCF100E010E019C0C8016F2D51
:10EB60000F947FFEFF2031F489E492EE60E00F9471
:10EB7000C2F10BC0F092C6008091C00086FFFCCFAE
:10EB80008091C00080648093C0000F5F1F4FC80158
:10EB900081519F41A0E0B0E0ABBFFC01F790BAE229
:10EBA000FB1621F0E2E000301E07C1F60F94DCF105
:10EBB0000F94DCF187E592EE60E00F94F5F10F948D
:10EBC000DCF1CC24DD2400E010E01EC0C8010F946D
:10EBD00077FEF82E882331F489E492EE60E00F94FA
:10EBE000C2F10BC08093C6008091C00086FFFCCFAD
:10EBF0008091C00080648093C000FE1419F00894D6
:10EC0000C11CD11C0F5F1F4FC80181519F41A0E063
:10EC1000B0E0ABBFFC01E790FAE2EF1621F022E092
:10EC20000030120799F60F94DCF10F94DCF182E6C4
:10EC300092EE60E00F94C2F1C60161E070E00F94C3
:10EC400034F20F94DCF10F94DCF110920202109276
:10EC50000302109204021092050278CE89E992EE26
:10EC600062E00F94F5F1279A2F9A16C02F9880E052
:10EC700090E0E0EDF7E03197F1F7019684369105E9
:10EC8000C1F72F9A80E090E0E0EDF7E03197F1F7DF
:10EC9000019684369105C1F78091C00087FFE6CFC9
:10ECA0008091C00087FFFCCF64C485EA92EE62E0E9
:10ECB0000F94F5F140910202509103026091040219
:10ECC0007091050281E020E10F9491F2809102029F
:10ECD00090910302A0910402B091050280509F4FD1
:10ECE000AF4FBF4F8093020290930302A0930402A0
:10ECF000B093050280509041A040B04008F426CE69
:10ED0000A4CF83EB92EE62E00F94F5F140910602FE
:10ED100050910702609108027091090280E020E1A1
:10ED20000F9491F28091060290910702A09108023F
:10ED3000B091090280509F4FAF4FBF4F80930602A2
:10ED400090930702A0930802B0930902FFCD80ECD4
:10ED500092EE62E00F94F5F183E792EE60E00F949B
:10ED6000F5F18FE792EE60E00F94F5F18BE892EE0B
:10ED700060E00F94F5F189E992EE60E00F94F5F10F
:10ED800085EA92EE60E00F94F5F183EB92EE60E09D
:10ED90000F94F5F180EC92EE60E00F94F5F187ECC2
:10EDA00092EE60E00F94F5F188ED92EE60E00F9442
:10EDB000F5F18FED92EE60E00F94F5F18AEE92EEB0
:10EDC00060E00F94F5F183E093EEBDCD87EC92EE19
:10EDD00062E00F94F5F181E40F947BF282E40F94EA
:10EDE0007BF283E40F947BF284E40F947BF285E45E
:10EDF0000F947BF286E40F947BF287E40F947BF20E
:10EE000088E40F947BF28AE40F947BF28BE40F94F6
:10EE10007BF28CE40F947BF299CD88ED92EE62E068
:10EE20000F94F5F1772473948824992409C48FED05
:10EE300092EE62E00F94F5F140910A0250910B02BC
:10EE400060910C0270910D0282E020E10F9491F22A
:10EE500080910A0290910B02A0910C02B0910D02D8
:10EE600080509F4FAF4FBF4F80930A0290930B0289
:10EE7000A0930C02B0930D0269CD8AEE92EE62E08F
:10EE80000F94F5F184EE90EE60E00F94F5F18FECC5
:10EE900091EE60E00F94F5F1662477244301CC5D98
:10EEA000DE4F19821882C452D140D401C301B695F5
:10EEB000A79597958795CA5DDE4F88839983AA8326
:10EEC000BB83C652D140CC5DDE4FA881B981C4520C
:10EED000D1401196CC5DDE4FB983A883C452D14096
:10EEE000CD0162E070E00F9434F2B0E2B093C6005E
:10EEF0008091C00086FFFCCF8091C0008064809329
:10EF0000C000EDE2E093C6008091C00086FFFCCF18
:10EF10008091C00080648093C000F0E2F093C6004E
:10EF20008091C00086FFFCCF8091C00080648093F8
:10EF3000C000CA5DDE4FE880F9800A811B81C6529D
:10EF4000D140BB27A12F902F8F2D0F940DF2CA5DBA
:10EF5000DE4F8881C652D1400F940DF2B0E2FB2EF5
:10EF6000F092C6008091C00086FFFCCF8091C00067
:10EF700080648093C0000DE30093C6008091C000C0
:10EF800086FFFCCF8091C00080648093C00010E2B7
:10EF90001093C6008091C00086FFFCCF8091C00016
:10EFA00080648093C0008BBEF3012791C65DDE4F65
:10EFB0002883CA52D140A22EBB24CC24DD2408943D
:10EFC000611C711C811C911C8BBEF3018791282E42
:10EFD0003324442455240894611C711C811C911C09
:10EFE0008BBEF3013791C55DDE4F3883CB52D140E4
:10EFF0000894611C711C811C911C8BBEF30147910C
:10F00000C45DDE4F4883CC52D140ADEFEA2EAFEF66
:10F01000FA2EAFEF0A2FAFEF1A2F6E0C7F1C801E57
:10F02000911E142D032DF22CEE24EA0CFB1C0C1D5A
:10F030001D1D0F940DF220E22093C6008091C000A8
:10F0400086FFFCCF8091C00080648093C000C65DC5
:10F05000DE4F8881CA52D1400F940DF230E23093D6
:10F06000C6008091C00086FFFCCF8091C000806404
:10F070008093C000C45DDE4F8881CC52D1400F9494
:10F080000DF240E24093C6008091C00086FFFCCFA5
:10F090008091C00080648093C000C55DDE4F888190
:10F0A000CB52D1400F940DF250E25093C6008091A4
:10F0B000C00086FFFCCF8091C00080648093C000B8
:10F0C0008FEFE8168FEFF80680E0080780E018075A
:10F0D00031F484E092EE60E00F94C2F1DFC0D80119
:10F0E000C7018070907CA070B0708050904CA040A0
:10F0F000B040D1F52FEF3FE340E050E0E222F322B1
:10F1000004231523CA5DDE4FA880B980CA80DB8046
:10F11000C652D140AE0CBF1CC01ED11EAA0CBB1CD7
:10F12000CC1CDD1C8EE092EE60E00F94C2F1BB2798
:10F13000A12F902F8F2D0F940DF28E2D0F940DF285
:10F1400030E23093C6008091C00086FFFCCF8091F2
:10F15000C00080648093C0004EE34093C60080915D
:10F16000C00086FFFCCF87C08EE09EEFA0E0B0E03D
:10F17000E822F9220A231B239CE0E91694E9F90608
:10F1800090E0090790E0190709F088C0C45DDE4FE0
:10F19000A881CC52D140EA2EFF2400E010E0102FCD
:10F1A0000F2DFE2CEE24C55DDE4FB881CB52D14031
:10F1B000EB0EF11C011D111DD601C501817090706F
:10F1C000A070B070DC0199278827E80EF91E0A1F8D
:10F1D0001B1F20EF30E040E050E0A222B322C42207
:10F1E000D52241E1AA0CBB1CCC1CDD1C4A95D1F7F1
:10F1F000EA0CFB1C0C1D1D1D81E090E0A0E0B0E0BE
:10F20000282239224A225B2235E1220C331C441C7D
:10F21000551C3A95D1F7E20CF31C041D151D57013E
:10F220006801AA0CBB1CCC1CDD1C85E192EE60E0E1
:10F230000F94C2F1C801AA27BB270F940DF2BB2778
:10F24000A12F902F8F2D0F940DF28E2D0F940DF274
:10F2500090E29093C6008091C00086FFFCCF809121
:10F26000C00080648093C000AEE3A093C60080918C
:10F27000C00086FFFCCF8091C00080648093C000F6
:10F28000C601AA27BB270F940DF2BB27AD2D9C2DDD
:10F290008B2D0F940DF28A2D0F940DF20F94DCF14B
:10F2A000CC5DDE4FE881F981C452D140F99709F471
:10F2B0004DCBF4E0EF2EF12C012D112D6E0C7F1CA7
:10F2C000801E911EF2CD83E093EE62E00F94F5F183
:10F2D0008AE192EE60E00F94C2F18091C00087FF56
:10F2E000FCCF1091C6001F751093C6008091C0001E
:10F2F00086FFFCCF8091C00080648093C0000F9493
:10F30000DCF1812F81548A3108F036C1163409F4BA
:10F3100095C0173490F4133409F44EC0143430F40B
:10F320001134F1F0123409F01DC130C0143409F465
:10F3300059C0153409F016C16BC01A3409F4C4C0A1
:10F340001B3438F4173409F48FC0183409F00AC19B
:10F35000A1C01B3409F4D2C01C3409F003C1E8C0B9
:10F360008FEF81B90DC082B1809582B980E090E0C5
:10F37000E0EDF7E03197F1F70196883C9105C1F790
:10F380008091C00087FFEFCF12B8EFC08FEF84B934
:10F390000DC085B1809585B980E090E0E0EDF7E0A3
:10F3A0003197F1F70196883C9105C1F78091C00033
:10F3B00087FFEFCF15B8D9C08FEF87B90DC088B1DF
:10F3C000809588B980E090E0E0EDF7E03197F1F7C3
:10F3D0000196883C9105C1F78091C00087FFEFCF6F
:10F3E00018B8C3C08FEF8AB90DC08BB180958BB9A7
:10F3F00080E090E0E0EDF7E03197F1F70196883C8E
:10F400009105C1F78091C00087FFEFCF1BB8ADC059
:10F410008FEF8DB90DC08EB180958EB980E090E0F0
:10F42000E0EDF7E03197F1F70196883C9105C1F7DF
:10F430008091C00087FFEFCF1EB897C08FEF80BBD1
:10F440000DC081B3809581BB80E090E0E0EDF7E0F6
:10F450003197F1F70196883C9105C1F78091C00082
:10F4600087FFEFCF11BA81C08FEF83BB0DC084B38C
:10F47000809584BB80E090E0E0EDF7E03197F1F714
:10F480000196883C9105C1F78091C00087FFEFCFBE
:10F4900014BA6BC08FEF809301010FC080910201FD
:10F4A00080958093020180E090E0E0EDF7E03197F5
:10F4B000F1F70196883C9105C1F78091C00087FF64
:10F4C000EDCF1092020151C08FEF809304010FC065
:10F4D0008091050180958093050180E090E0E0ED4A
:10F4E000F7E03197F1F70196883C9105C1F78091DB
:10F4F000C00087FFEDCF1092050137C08FEF8093DA
:10F5000007010FC08091080180958093080180E079
:10F5100090E0E0EDF7E03197F1F70196883C910536
:10F52000C1F78091C00087FFEDCF109208011DC088
:10F530008FEF80930A010FC080910B01809580931B
:10F540000B0180E090E0E0EDF7E03197F1F70196F4
:10F55000883C9105C1F78091C00087FFEDCF1092E4
:10F560000B0103C085E292EEEEC98091C00087FFD7
:10F57000FCCF8091C600EAC988E392EEE4C98CE131
:10F5800091EEE1C988249924933011F1943028F444
:10F59000913089F09230B8F408C0953061F195301F
:10F5A000F0F0963009F048C043C02B3109F042C951
:10F5B00091E06BE13FC96227C15DDE4F2883CF52E6
:10F5C000D14092E037C9B22FA0E0622793E032C960
:10F5D000822F90E0A82BB92B622794E02BC92E3004
:10F5E00009F039C3622795E0C05DDE4F19821882A9
:10F5F000C053D1401FC9E1E0F0E0EC0FFD1FC05D3A
:10F60000DE4F08811981C053D140E00FF11F2083E4
:10F610000F5F1F4FC05DDE4F19830883C053D14079
:10F6200062270A171B0709F005C9D80196E002C92D
:10F63000261709F010C303C0973009F0FBC87724E0
:10F640009981933109F412C19431C8F4963009F4C8
:10F65000D8C0973050F4923009F406C1933009F4C1
:10F660006DC0913009F059C253C0913109F477C08F
:10F67000923108F0BBC0903109F04FC2F5C098310B
:10F6800009F487C0993150F4953109F4EFC09531F0
:10F6900008F4C6C1963109F040C2C2C19A3109F4DA
:10F6A0006CC09A3108F491C09B3109F45BC09D3164
:10F6B00009F033C29D81903359F48F81882311F46E
:10F6C0009EE11CC0813011F091E018C098E916C08D
:10F6D000892F807591F0903539F4E0E0F0E089E011
:10F6E0008093570094910AC0983539F4E3E0F0E034
:10F6F00089E080935700949101C090E01A821B82A8
:10F700008D818C831D829E831F8227E030E009C299
:10F710001A8288E08B8381E48C8386E58D8382E581
:10F720008E8389E48F8383E5888780E589878FE5E9
:10F730008A8782E38B872BE030E0F3C18A818139AD
:10F7400041F0823941F0803911F48FE005C080E04A
:10F7500003C082E001C08AE01A828B8344C0772410
:10F76000739482C08D81882311F48EE12CC0813086
:10F7700011F081E028C088E926C01A82E1E0F0E0BB
:10F7800089E08093570084918B831C8224E030E0D1
:10F79000C8C18B81803589F48C81883039F4E2E0EE
:10F7A000F0E089E08093570084910DC0E0E0F0E044
:10F7B00089E080935700849106C0E3E0F0E089E09F
:10F7C0008093570084911A82DFCF8D81836C99E0FA
:10F7D000E1E0F0E0082E90935700E89507B600FCB2
:10F7E000FDCF1A821B8223E030E09BC180EC8A832C
:10F7F000CE5CDE4F188219821A821B82C253D1401E
:10F800008EC18A8190E0A0E0B0E0582F44273327D2
:10F8100022278B8190E0A0E0B0E0DC0199278827C7
:10F82000282B392B4A2B5B2B8D8190E0A0E0B0E098
:10F83000282B392B4A2B5B2B8C8190E0A0E0B0E089
:10F84000BA2FA92F982F8827282B392B4A2B5B2BCF
:10F85000220F331F441F551FC05EDE4F288339839C
:10F860004A835B83C052D1401A8259C13A81C95C34
:10F87000DE4F3883C753D140CA5CDE4F1882C6536F
:10F88000D1408B81C82EDD24CA5CDE4F488159816E
:10F89000C653D140C42AD52A933109F082C0CE5C28
:10F8A000DE4F88819981AA81BB81C253D1408050AB
:10F8B000904CA340B04030F583E0CE5CDE4FE88052
:10F8C000F9800A811B81C253D140F70100935B008C
:10F8D00080935700E89507B600FCFDCFCE5CDE4F65
:10F8E000088119812A813B81C253D14000501F4FAA
:10F8F0002F4F3F4FCE5CDE4F088319832A833B8313
:10F90000C253D140C05EDE4F488159816A817B81FC
:10F91000C052D140DE011B9631E08C9111962C91A2
:10F9200011971296C75CDE4F2883C953D140C85C3B
:10F93000DE4F1882C853D14090E0C85CDE4FE881AA
:10F94000F981C853D1408E2B9F2B0C01FA01609393
:10F950005B0030935700E89511244E5F5F4F6F4F67
:10F960007F4F0EEFE02E0FEFF02ECE0CDF1CC114F8
:10F97000D10499F685E0C05EDE4F088119812A81A5
:10F980003B81C052D140F80120935B008093570027
:10F99000E89507B600FCFDCF81E180935700E8951C
:10F9A00035C0C05EDE4F88819981AA81BB81C0527B
:10F9B000D140B695A795979587957C018601ABE0D8
:10F9C000AA2EB12CAC0EBD1E0BC0D5016D915D01F0
:10F9D000C7010F947FFE0894E11CF11C01501040F8
:10F9E0000115110591F7A60160E070E0440F551F65
:10F9F000661F771FC05EDE4FE880F9800A811B8199
:10FA0000C052D1404E0D5F1D601F711F1A82C05E33
:10FA1000DE4F488359836A837B83C052D1407FC0C5
:10FA2000FA80C55CDE4FF882CB53D140C65CDE4F16
:10FA30001882CA53D1408B81C82EDD24C65CDE4FAC
:10FA400008811981CA53D140C02AD12A1A828981DA
:10FA5000BE016D5F7F4F843121F59601C05EDE4FA0
:10FA6000E880F9800A811B81C052D1400BBFF701A9
:10FA700087919691DB018C9311969C936E5F7F4FDB
:10FA8000D801C7010296A11DB11DC05EDE4F88835B
:10FA90009983AA83BB83C052D14022503040F1F6F3
:10FAA00036C0C05EDE4F288139814A815B81C052F9
:10FAB000D1400894C108D108760100E010E0089414
:10FAC000C11CD11C0894E11CF11C011D111DE20E8A
:10FAD000F31E041F151F21BDBB27A52F942F832FB5
:10FAE00082BD2F5F3F4F4F4F5F4FF89A80B5DB01CC
:10FAF0008D93BD012E153F054007510761F7C05E8C
:10FB0000DE4F288339834A835B83C052D1409601FC
:10FB10002D5F3F4FFB01108204C080EC8A8322E0FE
:10FB200030E08BE18093C6008091C00086FFFCCF5F
:10FB30008091C00080648093C000C15DDE4FF88179
:10FB4000CF52D140F093C6008091C00086FFFCCF19
:10FB50008091C00080648093C000432F3093C60022
:10FB60008091C00086FFFCCF8091C00080648093AC
:10FB7000C000922F2093C6008091C00086FFFCCF6A
:10FB80008091C00080648093C0008EE08093C600A6
:10FB90008091C00086FFFCCF8091C000806480937C
:10FBA000C00065E1C15DDE4FE880CF52D1406E25D7
:10FBB00069276427FE01319610C090819093C6009A
:10FBC0008091C00086FFFCCF31968091C000806498
:10FBD0008093C0006927215030402115310569F715
:10FBE0006093C6008091C00086FFFCCF8091C0006A
:10FBF00080648093C00085B1805885B9772081F4F6
:10FC0000C15DDE4F0881CF52D1400F5FC15DDE4F35
:10FC10000883CF52D14090E0A0E0B0E00D941AF4F8
:10FC200027982F9880E090E020ED37E0F901319798
:10FC3000F1F7019684369105C9F700008091C00064
:10FC40008D7F8093C00081E180935700E895EE2777
:10FC5000FF270994FFCF90E00D941AF497FB092E2B
:10FC600007260AD077FD04D02ED006D000201AF443
:10FC7000709561957F4F0895F6F7909581959F4F08
:10FC80000895A1E21A2EAA1BBB1BFD010DC0AA1FDD
:10FC9000BB1FEE1FFF1FA217B307E407F50720F0F5
:10FCA000A21BB30BE40BF50B661F771F881F991F70
:10FCB0001A9469F760957095809590959B01AC01B9
:10FCC000BD01CF010895AA1BBB1B51E107C0AA1FAC
:10FCD000BB1FA617B70710F0A61BB70B881F991FED
:10FCE0005A95A9F780959095BC01CD010895F99991
:10FCF000FECF92BD81BDF89A992780B50895262F31
:10FD0000F999FECF1FBA92BD81BD20BD0FB6F89400
:0EFD1000FA9AF99A0FBE01960895F894FFCF63
:040000033000E000E9
:00000001FF
