:100000000C946B000C941C0D0C94430D0C949300F9
:100010000C9493000C9493000C9493000C94930014
:100020000C9493000C9493000C9493000C940B0B81
:100030000C9493000C9493000C9493000C949300F4
:100040000C946B0D0C9493000C9458100C948A1023
:100050000C9493000C9493000C9493000C949300D4
:100060000C9493000C9493000000010008004000E1
:1000700000010004050D000000080002010000035B
:100080000407000000000000000001020408102026
:10009000408001020408102001020408102004041A
:1000A0000404040404040202020202020303030320
:1000B00003030000000023002600290000000000C8
:1000C000250028002B0000000000240027002A0043
:1000D0005B03C806BA1011241FBECFEFD8E0DEBF05
:1000E000CDBF12E0A0E0B1E0E0E8F4E202C005908C
:1000F0000D92A035B107D9F724E0A0E5B2E001C028
:100100001D92A232B207E1F710E0C6EDD0E004C0C4
:100110002297FE010E942312C03DD107C9F70E9419
:10012000F0110C943E120C9400006115710581F0E1
:10013000DB010D900020E9F7AD0141505109461B4C
:10014000570BDC01ED91FC910280F381E02D0994C5
:1001500080E090E0089540E060E084E593E00E9454
:100160003D0C60E171E084E593E00E94950060E061
:1001700086E10E94B40E60E087E10E94B40E61E067
:1001800088E10E94B40E8DE00E94EA0E892B19F0DE
:100190008AE090E034C08FE090E031C041E060E060
:1001A00084E593E00E943D0C6091500370915103EF
:1001B0004AE050E084E593E00E94E51168EE73E0C8
:1001C00080E090E00E94E40D8091500390915103F3
:1001D0000A9721F484E593E00E94360C40E060E049
:1001E00084E593E00E943D0C60E171E084E593E0DA
:1001F0000E94950080915003909151030197909334
:1002000051038093500380915003909151030297C2
:100210002CF684E593E00E94360C40E060E084E533
:1002200093E00E943D0C6BE171E084E593E00E9455
:10023000950060E086E10E94B40E61E087E10E94D3
:10024000B40E60E088E10E94B40E60ED77E080E0DB
:1002500090E00E94E40D61E086E10E94B40E60E04F
:1002600087E10E94B40E60E088E10E94B40E84E54C
:1002700093E00C94360C40E060E084E593E00E944B
:100280003D0C68E271E084E593E00E94950060E037
:1002900089E10E94B40E60E08AE10E94B40E61E040
:1002A0008BE10E94B40E8CE00E94EA0E892B19F0BB
:1002B0008AE090E02EC08FE090E02BC041E060E04B
:1002C00084E593E00E943D0C6091500370915103CE
:1002D0004AE050E084E593E00E94E51168EE73E0A7
:1002E00080E090E00E94E40D8091500390915103D2
:1002F0000A9751F484E593E00E94360C68E271E0BD
:1003000084E593E00E949500809150039091510301
:1003100001979093510380935003809150039091E3
:10032000510302975CF684E593E00E94360C40E0AE
:1003300060E084E593E00E943D0C63E371E084E5B6
:1003400093E00E94950060E089E10E94B40E61E0B4
:100350008AE10E94B40E60E08BE10E94B40E60ED71
:1003600077E080E090E00E94E40D61E089E10E9486
:10037000B40E60E08AE10E94B40E60E08BE10E945E
:10038000B40E84E593E00C94360C40E060E084E524
:1003900093E00E943D0C60E471E084E593E00E94EC
:1003A000950060E08CE10E94B40E60E08DE10E9457
:1003B000B40E61E08EE10E94B40E8BE00E94EA0E62
:1003C000892B19F08AE090E02EC08FE090E02BC0DE
:1003D00041E060E084E593E00E943D0C60915003B1
:1003E000709151034AE050E084E593E00E94E511EA
:1003F00068EE73E080E090E00E94E40D809150038D
:10040000909151030A9751F484E593E00E94360CD1
:1004100060E471E084E593E00E94950080915003D0
:1004200090915103019790935103809350038091D1
:1004300050039091510302975CF684E593E00E948B
:10044000360C40E060E084E593E00E943D0C6BE4F4
:1004500071E084E593E00E94950060E08CE10E94E9
:10046000B40E61E08DE10E94B40E60E08EE10E9466
:10047000B40E60ED77E080E090E00E94E40D61E072
:100480008CE10E94B40E60E08DE10E94B40E60E049
:100490008EE10E94B40E84E593E00C94360C40E0AB
:1004A00060E084E593E00E943D0C68E571E084E53E
:1004B00093E00E94950060E08FE10E94B40E60E03E
:1004C00080E20E94B40E61E081E20E94B40E8AE0F4
:1004D0000E94EA0E892B19F08AE090E02EC08FE08E
:1004E00090E02BC041E060E084E593E00E943D0C89
:1004F00060915003709151034AE050E084E593E02D
:100500000E94E51168EE73E080E090E00E94E40D47
:1005100080915003909151030A9751F484E593E040
:100520000E94360C68E571E084E593E00E94950036
:1005300080915003909151030197909351038093C0
:100540005003809150039091510302975CF684E52B
:1005500093E00E94360C40E060E084E593E00E9466
:100560003D0C63E671E084E593E00E94950060E055
:100570008FE10E94B40E61E080E20E94B40E60E060
:1005800081E20E94B40E60ED77E080E090E00E948E
:10059000E40D61E08FE10E94B40E60E080E20E9411
:1005A000B40E60E081E20E94B40E84E593E00C9406
:1005B000360C40E061E084E593E00E943D0C60E78A
:1005C00071E084E593E00E94950060E086E10E947E
:1005D000B40E60E087E10E94B40E61E088E10E9401
:1005E000B40E84E190E09093510380935003809186
:1005F000500390915103029764F141E060E084E57B
:1006000093E00E943D0C60915003709151034AE0C9
:1006100050E084E593E00E94E51168EE73E080E02D
:1006200090E00E94E40D80915003909151030A974D
:1006300051F484E593E00E94360C60E771E084E5B4
:1006400093E00E949500809150039091510301978F
:10065000CACF84E593E00E94360C40E060E084E578
:1006600093E00E943D0C6BE171E084E593E00E9411
:10067000950060E086E10E94B40E61E087E10E948F
:10068000B40E60E088E10E94B40E60ED77E080E097
:1006900090E00E94E40D61E086E10E94B40E60E00B
:1006A00087E10E94B40E60E088E10E94B40E84E508
:1006B00093E00C94360CCF92EF920F9387E2C82E02
:1006C00096E2E92E05E224E243E262E284E593E069
:1006D0000E94F50CE12C07E026E045E060ED77E0B4
:1006E00080E592E00E940A070F91EF90CF90089565
:1006F00020E042E060E184E593E00E94570C26E0B0
:1007000040E855E260E070E085E893E00E94F60F73
:1007100060E08DE00E947B0E60E08CE00E947B0E2A
:1007200060E08BE00E947B0E60E08AE00E947B0E1E
:1007300061E086E10E947B0E61E087E10E947B0E12
:1007400061E088E10E947B0E61E089E10E947B0EFE
:1007500061E08AE10E947B0E61E08BE10E947B0EEA
:1007600061E08CE10E947B0E61E08DE10E947B0ED6
:1007700061E08EE10E947B0E61E08FE10E947B0EC2
:1007800061E080E20E947B0E61E081E20E947B0ECC
:1007900080E592E00E94330B811106C06FE771E0A3
:1007A00085E893E00C94301108950F931F93CF9335
:1007B000DF93CDB7DEB7ED970FB6F894DEBF0FBE6F
:1007C000CDBF80914C0390914D03892B09F046C019
:1007D00010924F0310924E0380914E0390914F035D
:1007E0000597B4F561E087E10E94B40E61E08AE10B
:1007F0000E94B40E61E08DE10E94B40E61E080E2DF
:100800000E94B40E6AEF70E080E090E00E94E40D78
:1008100060E087E10E94B40E60E08AE10E94B40EBD
:1008200060E08DE10E94B40E60E080E20E94B40EB0
:100830006AEF70E080E090E00E94E40D80914E034A
:1008400090914F03019690934F0380934E03C4CF32
:1008500081E090E090934D0380934C038CE38E01F4
:100860000F5F1F4FF801982F11929A95E9F78DAFFE
:10087000AE01435C5F4FB80180E592E00E94D40670
:10088000882359F081E090E09093530380935203C2
:10089000B80185E893E00E94301180915203909155
:1008A0005303019711F40E94D9020E94AB00AE01DC
:1008B000435C5F4FB80180E592E00E94D406882334
:1008C00059F081E090E09093530380935203B80174
:1008D00085E893E00E943011809152039091530378
:1008E000019711F40E94D9020E943B01AE01435CC2
:1008F0005F4FB80180E592E00E94D406882359F04A
:1009000081E090E09093530380935203B80185E80F
:1009100093E00E943011809152039091530301970C
:1009200011F40E94D9020E94C501AE01435C5F4FE1
:10093000B80180E592E00E94D406882359F081E056
:1009400090E09093530380935203B80185E893E0BD
:100950000E9430118091520390915303019711F43A
:100960000E94D9020E944F02ED960FB6F894DEBFA6
:100970000FBECDBFDF91CF911F910F9108956827D2
:1009800080E1689F90011124622770E0362F2227B2
:10099000492F50E0242B352BCB01F4E0959587951A
:1009A000FA95E1F728273927CB01A3E0880F991F93
:1009B000AA95E1F782279327089581E00895FC0125
:1009C00065830895FC0164830895FC01628708959E
:1009D000FC0163870895FC01648708954095FC013C
:1009E00025854223462B45870895FC01868108957D
:1009F000FC0187810895FC0180850895FC018185B3
:100A0000089580E00895CF93DF93EC01E881F981A8
:100A10000280F381E02DCE010995811103C00E946F
:100A20006A0DF4CFDF91CF910895CF93DF93EC015E
:100A30008A819B81039719F40E946A0DF9CF81E0A6
:100A4000DF91CF9108958F929F92AF92BF92CF92F4
:100A5000DF92EF92FF92CF93DF93EC016B010E9444
:100A6000B50D4B015C01E12CF12C0E94B50D68190C
:100A700079098A099B096C157D058E059F0560F42F
:100A8000E881F9810280F381E02DCE010995811181
:100A900005C00E946A0DE9CF80E001C081E0DF91CE
:100AA000CF91FF90EF90DF90CF90BF90AF909F904D
:100AB0008F9008958F929F92AF92BF92CF92DF92C4
:100AC000EF92FF92CF93DF93EC016B010E94B50D83
:100AD0004B015C01E12CF12C0E94B50D68197909DC
:100AE0008A099B096C157D058E059F0538F48A815E
:100AF0009B81039729F40E946A0DEECF80E001C02C
:100B000081E0DF91CF91FF90EF90DF90CF90BF9089
:100B1000AF909F908F900895FC018FE891E09183B2
:100B20008083138212828FEF848382878387148667
:100B30001586108A1786128A118A148A138A0895D4
:100B40000895089508950895FC01758364830895B8
:100B5000FC01778366830895FC01738362830895A3
:100B6000FC018BEB91E091838083738362835583D7
:100B700044833783268308956EBD00000DB407FEBD
:100B8000FDCF8EB508958CB580688CBD08958CB569
:100B90008F778CBD0895FC013085218580917A0383
:100BA000882399F09FB7F89480917A03813059F4A3
:100BB0008DB3809378034DB380917903809584231E
:100BC0008DBB9FBF02C0909378033CBD2DBD08959F
:100BD00080917A03882361F09FB7F89420917A037B
:100BE00080917803213019F48DBB9FBF08958FBF8A
:100BF00008950C948D0BCF92DF92EF92FF920F939A
:100C000030E0C12CF2E1DF2EFAE7EF2EF12C4C158B
:100C10005D056E057F0540F4F694E794D794C7947C
:100C20003F5F3630A1F737E041E04327211102C092
:100C300050E701C050E5242F30E03595279523700B
:100C40000C70202B252BFC012083417041830F91D8
:100C5000FF90EF90DF90CF9008952CB5982F937070
:100C60002C7F922B9CBD9DB582FB882780F99E7FAF
:100C7000982B9DBD0895EF92FF920F93CF93DF9332
:100C800000D0CDB7DEB77C01FC018681978100974B
:100C900071F08130910539F08230910531F0039780
:100CA00031F40CE005C004E003C008E001C000E03E
:100CB0008CB5837F802B8CBDF7018281938184303A
:100CC000910569F08330910579F08230910589F0C2
:100CD0000197A1F440E854E86EE170E013C040E0F1
:100CE00054E264EF70E00EC040E052E16AE770E069
:100CF00009C040E059E06DE370E004C040E452E414
:100D00006FE070E021E0F70184819581019709F49B
:100D100020E0CE0101960E94FB0589819A81F701AE
:100D20009187808784819581019719F48CB58062C1
:100D300002C08CB58F7D8CBDF701828193810197B4
:100D40008430910528F4FC01E153FE4F008101C07D
:100D500001E0802F0E942D060E94570B802F0E94D9
:100D60002D060F900F90DF91CF910F91FF90EF9094
:100D70000895CF93DF93EC010E94B00587ED91E0D9
:100D80009983888380E588871986DF91CF910895BC
:100D900020E030E040E050E060E070E08CE693E07E
:100DA0000C94B9068CE30895DF92EF92FF920F93B3
:100DB0001F93CF93DF93EC017B018A01E881F981D6
:100DC0000280F381E02D0995D82E8823D1F0E1141B
:100DD000F104B1F00115110599F0FE01E759FF4F3B
:100DE00090819750F8018081981708F49083F8015A
:100DF000408150E0BE01665D7F4FC7010E94351201
:100E00001D8E8D2DDF91CF911F910F91FF90EF904F
:100E1000DF900895AF92BF92CF92DF92EF920F933F
:100E2000CF93DF93CDB7DEB72A970FB6F894DEBF26
:100E30000FBECDBF6C015B012A8749870E948C05DC
:100E40008FEE91E0F60191838083B68AA58A498569
:100E5000478B2A85208F018FE38E88E0E8E0F1E060
:100E6000DE01119601900D928A95E1F7D601A35902
:100E7000BF4F88E0FE01319601900D928A95E1F70F
:100E80002A960FB6F894DEBF0FBECDBFDF91CF918B
:100E90000F91EF90DF90CF90BF90AF9008952F9279
:100EA0003F924F925F926F927F928F929F92AF92FA
:100EB000BF92CF92DF92EF92FF920F931F93CF9347
:100EC000DF9300D000D01F92CDB7DEB71A013D836B
:100ED0002C836115710511F4F90143C06B01E12CFC
:100EE000F12C83E0CC0CDD1CEE1CFF1C8A95D1F7A5
:100EF0000AE610E0F1E0FB83812C94E2992E94EF56
:100F0000A92EB12C2A01612C712C42E050E0B801CD
:100F1000CE0101960E942C1229813A8140E050E0D6
:100F2000C501B4010E94FF11CA01B901A7019601D0
:100F30000E94FF11223031054105510528F024158A
:100F400035054605570540F08B818F5F8B830E5F1B
:100F50001F4F8730D1F609C0EB81E63059F4EC81A0
:100F6000FD811182108280E012C0223031054105DE
:100F70005105A8F3C101A0E0B0E082179307A407D0
:100F8000B50768F3EC81FD81318320838B810F905D
:100F90000F900F900F900F90DF91CF911F910F91B5
:100FA000FF90EF90DF90CF90BF90AF909F908F9089
:100FB0007F906F905F904F903F902F900895CF93C8
:100FC000DF9300D0CDB7DEB7FC01658976899E013D
:100FD0002F5F3F4F4FEF5FEF0E944F078823A9F02D
:100FE0001092800098E09093810090918100982B5E
:100FF0009093810089819A819093890080938800E1
:1010000080916F00826080936F000F900F90DF914E
:10101000CF910895CF93DF93EC018F890E94EA0E60
:1010200021E0892B09F420E08A8D8227DF91CF917E
:101030000895FC01808D0C94B40EFC01238D622771
:10104000818D0C94B40ECF93DF93EC018A819B8148
:10105000029761F060E0CE010E941D0860E0CE01C1
:101060000E94190882E090E09B838A83DF91CF91F0
:101070000895CF93DF93EC018A819B81049761F0FF
:1010800060E0CE010E941D0860E0CE010E941908B8
:1010900084E090E09B838A83DF91CF910895CF9382
:1010A000DF93EC018A819B81039781F0FE01E65971
:1010B000FF4F1082319610823196108261E0CE018E
:1010C0000E941D0883E090E09B838A83DF91CF918B
:1010D00008956F927F929F92AF92BF92CF92DF92CC
:1010E000EF92FF920F931F93CF93DF9300D0CDB772
:1010F000DEB73C01B62E4D3308F014C17C0125E764
:10110000E20EF11CDC01ED91FC910484F585E02DEB
:101110004A83798309954A8117E0140F612F8FEF75
:101120009FEF0E94BF04E12FF0E0A4E0F595E79562
:10113000AA95E1F7E95EFD4F2081F70120831F703A
:10114000E12FF0E0E95EFD4F2081F301EA58FF4F07
:101150002083D3011A966C910E94BF04F30122856B
:10116000E22FF0E0B4E0F595E795BA95E1F7E95E96
:10117000FD4F3081D301A958BF4F3C932F70E22F10
:10118000F0E0E95EFD4F2081F301E858FF4F208336
:10119000D3011B966C910E94BF04F3012385E22FBB
:1011A000F0E014E0F595E7951A95E1F7E95EFD4F5B
:1011B0003081D301A758BF4F3C932F70E22FF0E04E
:1011C000E95EFD4F2081F301E658FF4F2083D301F4
:1011D0001C966C910E94BF04F3012485E22FF0E07D
:1011E00004E0F595E7950A95E1F7E95EFD4F30815A
:1011F000D301A558BF4F3C932F70E22FF0E0E95E7A
:10120000FD4F2081F301E458FF4F2083D3011D9649
:101210006C910E94BF04F3012585E22FF0E034E0D9
:10122000F595E7953A95E1F7E95EFD4F3081D301F9
:10123000A358BF4F3C932F70E22FF0E0E95EFD4FC3
:101240002081F301E258FF4F20839B2C6301F0E8DB
:10125000CF0ED11C0B2D7981172F4A81202F2919F0
:10126000241718F55801D8016C914A830E94BF04D5
:10127000F6013197D8012D918D01A22FB0E074E0D5
:10128000B595A7957A95E1F7A95EBD4F2C9120837E
:10129000D501EC91EF70F0E0E95EFD4F2081F601A1
:1012A0002083F2E0CF0ED11CD8CF50E04B5F5F4FD0
:1012B000440F551F80959095E40EF51EDC0134E037
:1012C000B695A7953A95E1F7AF70BB27A95EBD4FDC
:1012D0002C91D7012C93FC01EF70FF27E95EFD4FA5
:1012E000208111962C931197FC01EF2FFF27E29597
:1012F000EF70E95EFD4F208112962C931297E92F33
:10130000FF27EF70FF27E95EFD4F808113968C93D6
:10131000F301E550FF4F445F4083C3010E944F0833
:1013200081E001C080E00F900F90DF91CF911F917D
:101330000F91FF90EF90DF90CF90BF90AF909F9074
:101340007F906F900895862F86958695887098E097
:10135000980F891749F0E82FF0E0E95EFD4F2081F2
:10136000621719F08F5FF5CF80E00895FF920F9319
:101370001F93CF93DF93EC01F12C8FEF9FEF8E0142
:1013800007591F4FF8012081F21640F4FE01EF0DBE
:10139000F11D65A10E94BF04F394F4CF883B904FE8
:1013A00039F08F8598890196988B8F871D8E19C08B
:1013B0008EA18E838FA18F8388A5888789A5898731
:1013C0008D81811107C09E818C81981719F08E81C3
:1013D0008F3F39F489899A8901969A8B898B81E0AC
:1013E0008D8FDF91CF911F910F91FF900895CF9333
:1013F000DF93EC018A819B81039761F0CE010E940B
:1014000039088C8D882321F0CE010E94B6091C8EEC
:101410008D8D01C080E0DF91CF9108951F93CF9310
:10142000DF93EC010E940A08882319F09F8D9F5FCB
:101430009F8F9E8D891771F098A1903518F42BE03D
:1014400030E002C02DE130E098A1290F311D28A322
:101450008E8F03C088A18C5E88A388A1803A08F48F
:101460006EC08AA19BA1969587959BA38AA38F8D19
:10147000853028F08AA19BA198609BA38AA388A1AC
:10148000805A88A31F8E89A1882309F446C08CA1A5
:101490008F5F8CA38C3008F452C06AA17BA16F735C
:1014A000CE010E94A309182F6AA17BA146E0769580
:1014B00067954A95E1F7CE010E94A30990E1199F33
:1014C00090011124822BBE0167597F4FFB0190814F
:1014D000DE01A859BF4F9923B1F0FB01908121E0B3
:1014E000290F2083AE01490F511DFA0185A3FB018D
:1014F00090818C91981778F019A281E08C8FCE01A1
:101500000E94230808C08C939C91973090F09C9186
:10151000943478F4E2CF1CA212C08AA19BA1883334
:101520009B4069F481E089A31CA2C759DF4F188250
:1015300006C019A28F8598890196988B8F87DF91B5
:10154000CF911F910895CF92DF92EF92FF920F9368
:101550001F93CF93DF93EC018C0104591F4FF801C7
:10156000808191E0980F9083811136C06E01FAE678
:10157000CF0ED11CF6018081EF56FF4F9081891765
:1015800048F0CE010E9423088B899C8901969C8B90
:101590008B8B22C0FE01E80FF11DE359FF4F6081E4
:1015A00070E07E01FBE6EF0EF11CF701808191E017
:1015B000980F908302C0759567958A95E2F76170E0
:1015C000CE010E941908F7018081863028F0108230
:1015D000F60180818F5F8083F8018081883008F078
:1015E0001082DF91CF911F910F91FF90EF90DF90CC
:1015F000CF900895FC01228133812430310511F40C
:101600000C940E0AFC01228133812330310511F440
:101610000C94A30A08951F920F920FB60F921124F3
:101620002F933F934F935F936F937F938F939F93EA
:10163000AF93BF93EF93FF938091760390917703DD
:101640000E94FA0AFF91EF91BF91AF919F918F9104
:101650007F916F915F914F913F912F910F900FBEAE
:101660000F901F9018951F93CF93DF93EC010E946A
:10167000DD04182F8823B1F0D0937703C09376034D
:1016800061E0888D0E947B0E60E08F890E947B0E56
:1016900061E0898D0E947B0ECE010E942308CE015D
:1016A0000E94DF07812FDF91CF911F910895CF9383
:1016B000CFB7F89480917B03811127C0E8EAF0E06E
:1016C0008491E4E9F0E09491E82FF0E0EE0FFF1F41
:1016D000EA53FF4FA591B4918C91892321F461E0E5
:1016E0008AE00E94B40E61E08AE00E947B0E8CB515
:1016F00080618CBD8CB580648CBD61E08DE00E9402
:101700007B0E61E08BE00E947B0E80917B038F5FFC
:1017100080937B03CFBFCF9108959FB7F8948091BA
:101720007B03882319F0815080937B0380917B0396
:10173000811105C08CB58F7B8CBD10927A039FBF41
:101740000895CF93DF93EC0160E08E810E94B40E88
:1017500081E090E00E940C0E61E08E810E94B40E48
:1017600081E090E00E940C0E60E08E810E94B40E39
:1017700084E690E0DF91CF910C940C0EEF92FF92F3
:101780000F931F93CF93DF938C01C0E0D0E0E62E40
:10179000F12CB7010C2E02C0759567950A94E2F7FB
:1017A0006170F801EC0FFD1F87810E94B40E219635
:1017B000C430D10571F7C801DF91CF911F910F910E
:1017C000FF90EF900C94A10BEF92FF920F931F9359
:1017D000CF93DF938C01C0E0D0E0E62EF12CB7016F
:1017E0000C2E02C0759567950A94E2F76170F801B6
:1017F000EC0FFD1F87810E94B40E2196C830D105E1
:1018000071F7C801DF91CF911F910F91FF90EF9079
:101810000C94A10B1F93CF93DF93EC01162F642F31
:101820008C810E94B40E8D818F3F19F060E00E9480
:10183000B40E8F85612F84FF06C0CE01DF91CF915A
:101840001F910C94E40B70E084E0759567958A9580
:10185000E1F7CE010E94BE0B612FCE01DF91CF9147
:101860001F910C94BE0B40E00C940A0C61E00E94A6
:10187000330C80ED97E00C940C0E443008F043E0FC
:10188000FC012389421710F04FEF420FFC01E40FD7
:10189000F11D2489260F2068622F0C94330CFC0163
:1018A0006089262F2460208B6C600C94330C0F937E
:1018B0001F93CF93DF93EC01423018F08F8588603F
:1018C0008F874B8B1C8A80E48D8B6E8B70E0605C05
:1018D0007F4F6F8B222329F0413019F48F8584606C
:1018E0008F8761E08C810E947B0E8D818F3F19F084
:1018F00061E00E947B0E61E08E810E947B0E00E021
:1019000010E08F8584FF03C088E090E002C084E08F
:1019100090E00817190754F4FE01E00FF11F61E091
:1019200087810E947B0E0F5F1F4FEBCF80E593EC0A
:101930000E940C0E60E08C810E94B40E60E08E81EB
:101940000E94B40E8D818F3F19F060E00E94B40EAA
:101950006F8564FD1DC063E0CE010E94BE0B84E96B
:1019600091E10E940C0E63E0CE010E94BE0B84E95F
:1019700091E10E940C0E63E0CE010E94BE0B86E94D
:1019800090E00E940C0E62E0CE010E94BE0B16C0D9
:101990006062CE010E94330C84E991E10E940C0E3A
:1019A0006F856062CE010E94330C86E990E00E9450
:1019B0000C0E6F856062CE010E94330C6F856062F1
:1019C000CE010E94330C84E0888BCE010E944F0C24
:1019D000CE010E94360C82E0898B66E0CE01DF9159
:1019E000CF911F910F910C94330CCF92EF920F93E4
:1019F000FC01138212828BE292E0918380836483E4
:101A00008FEF8583468327830087E186C28613860E
:101A1000148615861686178620E041E060E1CF0126
:101A20000F91EF90CF900C94570C41E00E940A0C5C
:101A300081E090E0089508951F920F920FB60F92E3
:101A400011242F933F934F935F936F937F938F93C3
:101A50009F93AF93BF93EF93FF93E0910401F091B5
:101A600005010995FF91EF91BF91AF919F918F91E2
:101A70007F916F915F914F913F912F910F900FBE8A
:101A80000F901F9018951F920F920FB60F9211246E
:101A90002F933F934F935F936F937F938F939F9376
:101AA000AF93BF93EF93FF93E0910601F09107018D
:101AB0000995FF91EF91BF91AF919F918F917F9188
:101AC0006F915F914F913F912F910F900FBE0F90AB
:101AD0001F90189508951F920F920FB60F92112420
:101AE0002F933F938F939F93AF93BF9380917D03E9
:101AF00090917E03A0917F03B091800330917C038D
:101B000023E0230F2D3720F40196A11DB11D05C040
:101B100026E8230F0296A11DB11D20937C0380931C
:101B20007D0390937E03A0937F03B0938003809105
:101B3000810390918203A0918303B0918403019665
:101B4000A11DB11D8093810390938203A093830311
:101B5000B0938403BF91AF919F918F913F912F914B
:101B60000F900FBE0F901F9018952FB7F8946091AB
:101B70007D0370917E0380917F03909180032FBF3E
:101B800008953FB7F8948091810390918203A091CA
:101B90008303B091840326B5A89B05C02F3F19F09D
:101BA0000196A11DB11D3FBF6627782F892F9A2F5F
:101BB000620F711D811D911D42E0660F771F881F06
:101BC000991F4A95D1F70895CF92DF92EF92FF9235
:101BD000CF93DF936B017C010E94C10DEB01C11417
:101BE000D104E104F10489F00E946A0D0E94C10D44
:101BF0006C1B7D0B683E734090F381E0C81AD108DE
:101C0000E108F108C851DC4FEACFDF91CF91FF9096
:101C1000EF90DF90CF9008958230910538F0880FD3
:101C2000991F880F991F05970197F1F708957894E8
:101C300084B5826084BD84B5816084BD85B58260D1
:101C400085BD85B5816085BDEEE6F0E0808181606F
:101C50008083E1E8F0E0108280818260808380816F
:101C600081608083E0E8F0E0808181608083E1EB47
:101C7000F0E0808184608083E0EBF0E0808181602F
:101C80008083EAE7F0E080818460808380818260E5
:101C900080838081816080838081806880831092CE
:101CA000C1000895833081F028F4813099F08230AA
:101CB000A1F008958730A9F08830B9F08430D1F4CC
:101CC000809180008F7D03C0809180008F7780930A
:101CD0008000089584B58F7702C084B58F7D84BD60
:101CE00008958091B0008F7703C08091B0008F7D00
:101CF0008093B0000895CF93DF9390E0FC01E65706
:101D0000FF4F2491FC01E256FF4F8491882349F153
:101D100090E0880F991FFC01EA53FF4FA591B49101
:101D200084549F4FFC01C591D4919FB7611108C0A5
:101D3000F8948C91209582238C93888182230AC009
:101D4000623051F4F8948C91322F309583238C9328
:101D50008881822B888304C0F8948C91822B8C9389
:101D60009FBFDF91CF9108950F931F93CF93DF9380
:101D70001F92CDB7DEB7282F30E0F901EA58FF4FA8
:101D80008491F901E657FF4F1491F901E256FF4F94
:101D900004910023C9F0882321F069830E94520E28
:101DA0006981E02FF0E0EE0FFF1FE454FF4FA59193
:101DB000B4919FB7F8948C91611103C01095812361
:101DC00001C0812B8C939FBF0F90DF91CF911F910A
:101DD0000F910895CF93DF93282F30E0F901EA584F
:101DE000FF4F8491F901E657FF4FD491F901E25674
:101DF000FF4FC491CC2391F081110E94520EEC2F21
:101E0000F0E0EE0FFF1FEE54FF4FA591B4912C911F
:101E10002D2381E090E021F480E002C080E090E09A
:101E2000DF91CF910895FC01818D228D90E0805C3F
:101E30009F4F821B91098F7399270895FC01918D03
:101E4000828D981731F0828DE80FF11D858D90E01D
:101E500008958FEF9FEF0895FC01918D828D981763
:101E600061F0828DDF01A80FB11D5D968C91928D7E
:101E70009F5F9F73928F90E008958FEF9FEF08957B
:101E800080EB90E1892B49F080E090E0892B29F0EC
:101E90000E94B01081110C9400000895FC01848D03
:101EA000DF01A80FB11DA35ABF4F2C91848D90E084
:101EB00001968F739927848FA689B7892C93A0895F
:101EC000B1898C9180648C93938D848D981306C016
:101ED0000288F389E02D80818F7D80830895CF93E0
:101EE000DF93EC01888D8823C9F0EA89FB89808122
:101EF00085FD05C0A889B9898C9186FD0FC00FB6F4
:101F000007FCF5CF808185FFF2CFA889B9898C9134
:101F100085FFEDCFCE010E944E0FE7CFDF91CF912D
:101F20000895CF92DF92FF920F931F93CF93DF9389
:101F30001F92CDB7DEB76C0181E0D60158968C9325
:101F400058975B969C915B975C968C915C979813E5
:101F500007C05096ED91FC915197808185FD2EC070
:101F6000F601038D10E00F5F1F4F0F731127F02E46
:101F7000F601848DF81211C00FB607FCF9CFD60117
:101F80005096ED91FC915197808185FFF1CFC6016C
:101F900069830E944E0F6981EBCF838DE80FF11D9D
:101FA000E35AFF4F6083D6015B960C935B97529682
:101FB000ED91FC915397808180620CC0D6015696BA
:101FC000ED91FC91579760835096ED91FC9151975C
:101FD00080818064808381E090E00F90DF91CF91D9
:101FE0001F910F91FF90DF90CF900895BF92CF92F5
:101FF000DF92EF92FF92CF93DF93EC016A017B01B6
:10200000B22EE889F98982E08083411581EE580774
:1020100061057105A1F060E079E08DE390E0A70132
:1020200096010E94FF11215031094109510956952D
:10203000479537952795211580E1380798F0E8896D
:10204000F989108260E874E88EE190E0A7019601BA
:102050000E94FF11215031094109510956954795B8
:1020600037952795EC85FD853083EE85FF852083A8
:10207000188EEC89FD89B082EA89FB8980818061B4
:102080008083EA89FB89808188608083EA89FB8973
:10209000808180688083EA89FB8980818F7D80834D
:1020A000DF91CF91FF90EF90DF90CF90BF90089598
:1020B0001F920F920FB60F9211242F938F939F931D
:1020C000EF93FF93E0919503F09196038081E09167
:1020D0009B03F0919C0382FD12C0908180919E032E
:1020E0008F5F8F7320919F03821751F0E0919E03C1
:1020F000F0E0EB57FC4F958F80939E0301C08081E9
:10210000FF91EF919F918F912F910F900FBE0F90A4
:102110001F9018951F920F920FB60F9211242F93B4
:102120003F934F935F936F937F938F939F93AF935F
:10213000BF93EF93FF9385E893E00E944E0FFF91CA
:10214000EF91BF91AF919F918F917F916F915F912F
:102150004F913F912F910F900FBE0F901F901895A8
:1021600085E893E00E94130F21E0892B09F420E019
:10217000822F0895109288031092870388EE93E0CF
:10218000A0E0B0E08093890390938A03A0938B032F
:10219000B0938C0383E392E090938603809385034E
:1021A00085EC90E0909392038093910384EC90E00F
:1021B000909394038093930380EC90E09093960324
:1021C0008093950381EC90E090939803809397031C
:1021D00082EC90E090939A038093990386EC90E0D0
:1021E00090939C0380939B0310929E0310929F03F5
:1021F0001092A0031092A1030895CF92DF92EF9264
:10220000FF920F931F93CF93DF937C016A01EB0141
:1022100000E010E00C151D0571F06991D701ED91FA
:10222000FC910190F081E02DC7010995892B19F0EF
:102230000F5F1F4FEFCFC801DF91CF911F910F911B
:10224000FF90EF90DF90CF900895DC01ED91FC912D
:102250000190F081E02D09946FE372E00C949500F9
:102260000F931F93CF93DF93EC010E9495008C0195
:10227000CE010E942C11800F911FDF91CF911F91F1
:102280000F9108958F929F92AF92BF92CF92DF925B
:10229000EF92FF920F931F93CF93DF93CDB7DEB7EB
:1022A000A1970FB6F894DEBF0FBECDBF7C01C42E40
:1022B000E52FCB01D22E19A221E02D1510F02AE036
:1022C000D22E8E010F5D1F4F8D2C912CA12CB12C85
:1022D0006C2D7E2FA50194010E94FF118C2DD29EA2
:1022E00080191124015011098A3014F4805D01C055
:1022F000895CF8018083211531054105510521F0E4
:10230000C22EE32FCA01E4CFB801C7010E94950095
:10231000A1960FB6F894DEBF0FBECDBFDF91CF916F
:102320001F910F91FF90EF90DF90CF90BF90AF90F3
:102330009F908F900895CF92DF92EF92FF920F932C
:102340001F93CF93DF93EC016A017B0121153105C7
:1023500079F4E881F9810190F081E02D642FDF911B
:10236000CF911F910F91FF90EF90DF90CF90099444
:102370002A303105E9F477FF1AC06DE20E94251179
:102380008C0144275527BA014C195D096E097F0954
:102390002AE0CE010E944211800F911FDF91CF9160
:1023A0001F910F91FF90EF90DF90CF9008952AE05A
:1023B000B701A601CE01DF91CF911F910F91FF9040
:1023C000EF90DF90CF900C9442119A01AB016627F9
:1023D00057FD6095762F0C949B110E94271208954B
:1023E0000E94170E0E94EF110E947803C0E4DFE004
:1023F0000E94D5032097E1F30E94400FF9CFA1E29C
:102400001A2EAA1BBB1BFD010DC0AA1FBB1FEE1F6E
:10241000FF1FA217B307E407F50720F0A21BB30BB9
:10242000E40BF50B661F771F881F991F1A9469F735
:1024300060957095809590959B01AC01BD01CF0191
:102440000895EE0FFF1F0590F491E02D099481E0AF
:1024500090E0F8940C943E12FB01DC0102C0059060
:102460000D9241505040D8F70895FB01DC0102C0A5
:1024700001900D9241505040D8F70895F894FFCF45
:10248000010000001B0D1B0D2A2A2A2A2A2A382C9B
:102490005741592031203A20474F005741592031A8
:1024A000203A2053544F50005741592032203A20AF
:1024B000474F005741592032203A2053544F500083
:1024C0005741592033203A20474F00574159203374
:1024D000203A2053544F50005741592034203A207D
:1024E000474F005741592034203A2053544F500051
:1024F0005741593120454D455247454E4359006992
:102500006E6974206661696C65640000000000DD1E
:1025100004ED11ED11ED11ED11030515055A05231B
:1025200005E204E504E804EB04EE04DF04F504F836
:1025300004FB04FE04010500000000ED11A005A14C
:1025400005ED11ED11A405A805AC05A205A305052F
:1025500000040400000000BC05C305C7053B06F9E4
:1025600005A405A805AC05CB05E80500000000336F
:102570000BF709D4066908D206030515055A052389
:1025800005E204E504E804EB04EE04DF04F504F8D6
:1025900004FB04FE0401050D0E131516191A1C2365
:1025A0002526292A2C323400000000150DFD1000CC
:1025B000000000910FFD10130F2C0F1E0F6F0F0D59
:1025C0000A006E616E00696E66006F7666002E000E
:107E0000112484B714BE81FFF0D085E080938100F7
:107E100082E08093C00088E18093C10086E0809377
:107E2000C20080E18093C4008EE0C9D0259A86E02C
:107E300020E33CEF91E0309385002093840096BBD3
:107E4000B09BFECF1D9AA8958150A9F7CC24DD24C4
:107E500088248394B5E0AB2EA1E19A2EF3E0BF2EE7
:107E6000A2D0813461F49FD0082FAFD0023811F036
:107E7000013811F484E001C083E08DD089C08234E0
:107E800011F484E103C0853419F485E0A6D080C0E4
:107E9000853579F488D0E82EFF2485D0082F10E0AE
:107EA000102F00270E291F29000F111F8ED06801E7
:107EB0006FC0863521F484E090D080E0DECF843638
:107EC00009F040C070D06FD0082F6DD080E0C81688
:107ED00080E7D80618F4F601B7BEE895C0E0D1E017
:107EE00062D089930C17E1F7F0E0CF16F0E7DF06D8
:107EF00018F0F601B7BEE89568D007B600FCFDCFD4
:107F0000A601A0E0B1E02C9130E011968C91119780
:107F100090E0982F8827822B932B1296FA010C0160
:107F200087BEE89511244E5F5F4FF1E0A038BF0790
:107F300051F7F601A7BEE89507B600FCFDCF97BE46
:107F4000E89526C08437B1F42ED02DD0F82E2BD052
:107F50003CD0F601EF2C8F010F5F1F4F84911BD097
:107F6000EA94F801C1F70894C11CD11CFA94CF0C13
:107F7000D11C0EC0853739F428D08EE10CD085E9AC
:107F80000AD08FE07ACF813511F488E018D01DD067
:107F900080E101D065CF982F8091C00085FFFCCF94
:107FA0009093C60008958091C00087FFFCCF809118
:107FB000C00084FD01C0A8958091C6000895E0E648
:107FC000F0E098E1908380830895EDDF803219F02E
:107FD00088E0F5DFFFCF84E1DECF1F93182FE3DFCA
:107FE0001150E9F7F2DF1F91089580E0E8DFEE27F6
:047FF000FF270994CA
:027FFE00040479
:0400000300007E007B
:00000001FF
