:100000000C946B000C94E7070C940E080C9493006E
:100010000C9493000C9493000C9493000C94930014
:100020000C9493000C9493000C9493000C94500740
:100030000C9493000C9493000C9493000C949300F4
:100040000C9436080C9493000C94D3090C94050A74
:100050000C9493000C9493000C9493000C949300D4
:100060000C9493000C9493000000010008004000E1
:1000700000010004050D000000080002010000035B
:100080000407000000000000000001020408102026
:10009000408001020408102001020408102004041A
:1000A0000404040404040202020202020303030320
:1000B00003030000000023002600290000000000C8
:1000C000250028002B0000000000240027002A0043
:1000D00095000D03350A11241FBECFEFD8E0DEBF17
:1000E000CDBF11E0A0E0B1E0E4E0F8E102C005908E
:1000F0000D92A83EB107D9F723E0A8EEB1E001C008
:100100001D92AC39B207E1F710E0C6EDD0E004C0B3
:100110002297FE010E94E50BC03DD107C9F70E945E
:10012000CF0A0C94000C0C940000EF920F93E12C7A
:1001300007E026E045E060ED77E088EE91E00E9480
:100140004F030F91EF90089588EE91E00E94780799
:10015000811106C060E171E08FEF92E00E94BA0A5F
:1001600061E08DE00E943B0960E08CE00C943B096B
:100170008CE00E94AA09892B09F445C08CE00E94FA
:10018000AA09892BD9F71092E5021092E402809116
:10019000E4029091E50284369105ACF561E08DE0D2
:1001A0000E94740962E370E080E090E00E94AF0872
:1001B00060E08DE00E94740962E370E080E090E00E
:1001C0000E94AF0843E066E271E088EE91E00E9491
:1001D000AE04E091E801F091E9010484F585E02D99
:1001E00088EE91E0099568EC70E080E090E00E9474
:1001F000AF088091E4029091E50201969093E502A8
:100200008093E402C4CF0895682780E1689F90013D
:100210001124622770E0362F2227492F50E0242B2B
:10022000352BCB01F4E095958795FA95E1F72827D2
:100230003927CB01A3E0880F991FAA95E1F7822700
:100240009327089581E00895FC0165830895FC01DA
:1002500064830895FC0162870895FC016387089513
:10026000FC01648708954095FC0125854223462BB7
:1002700045870895FC0186810895FC0187810895D2
:10028000FC0180850895FC018185089580E0089532
:10029000CF93DF93EC01E881F9810280F381E02DB7
:1002A000CE010995811103C00E943508F4CFDF917A
:1002B000CF910895CF93DF93EC018A819B810397BF
:1002C00019F40E943508F9CF81E0DF91CF910895AC
:1002D0008F929F92AF92BF92CF92DF92EF92FF9256
:1002E000CF93DF93EC016B010E9480084B015C010E
:1002F000E12CF12C0E948008681979098A099B0970
:100300006C157D058E059F0560F4E881F9810280FA
:10031000F381E02DCE010995811105C00E943508B9
:10032000E9CF80E001C081E0DF91CF91FF90EF90B5
:10033000DF90CF90BF90AF909F908F9008958F9255
:100340009F92AF92BF92CF92DF92EF92FF92CF93A4
:10035000DF93EC016B010E9480084B015C01E12CF2
:10036000F12C0E948008681979098A099B096C158B
:100370007D058E059F0538F48A819B81039729F4BA
:100380000E943508EECF80E001C081E0DF91CF917F
:10039000FF90EF90DF90CF90BF90AF909F908F90A5
:1003A0000895FC018EE291E0918380831382128292
:1003B0008FEF84838287838714861586108A178639
:1003C000128A118A148A138A089508950895089547
:1003D0000895FC01758364830895FC017783668327
:1003E0000895FC01738362830895FC018AE591E01E
:1003F0009183808373836283558344833783268309
:1004000008956EBD00000DB407FEFDCF8EB50895B2
:100410008CB580688CBD08958CB58F778CBD0895A0
:10042000FC01308521858091F402882399F09FB7E3
:10043000F8948091F402813059F48DB38093F202E4
:100440004DB38091F302809584238DBB9FBF02C082
:100450009093F2023CBD2DBD08958091F402882353
:1004600061F09FB7F8942091F4028091F20221305C
:1004700019F48DBB9FBF08958FBF08950C94D207C8
:10048000CF92DF92EF92FF920F9330E0C12CF2E116
:10049000DF2EFAE7EF2EF12C4C155D056E057F057A
:1004A00040F4F694E794D794C7943F5F3630A1F7B1
:1004B00037E041E04327211102C050E701C050E579
:1004C000242F30E03595279523700C70202B252B99
:1004D000FC012083417041830F91FF90EF90DF90EA
:1004E000CF9008952CB5982F93702C7F922B9CBDA4
:1004F0009DB582FB882780F99E7F982B9DBD08952E
:10050000EF92FF920F93CF93DF9300D0CDB7DEB77A
:100510007C01FC0186819781009771F08130910503
:1005200039F08230910531F0039731F40CE005C0C9
:1005300004E003C008E001C000E08CB5837F802B9D
:100540008CBDF701828193818430910569F08330FD
:10055000910579F08230910589F00197A1F440E886
:1005600054E86EE170E013C040E054E264EF70E0E4
:100570000EC040E052E16AE770E009C040E059E097
:100580006DE370E004C040E452E46FE070E021E00D
:10059000F70184819581019709F420E0CE0101964D
:1005A0000E94400289819A81F70191878087848126
:1005B0009581019719F48CB5806202C08CB58F7D4E
:1005C0008CBDF7018281938101978430910528F4D5
:1005D000FC01E259FE4F008101C001E0802F0E9422
:1005E00072020E949C07802F0E9472020F900F904F
:1005F000DF91CF910F91FF90EF900895CF93DF930C
:10060000EC010E94F50186E791E09983888380E5FB
:1006100088871986DF91CF91089520E030E040E08F
:1006200050E060E070E086EE92E00C94FE028CE315
:100630000895DF92EF92FF920F931F93CF93DF9372
:10064000EC017B018A01E881F9810280F381E02DD0
:100650000995D82E8823D1F0E114F104B1F00115E9
:10066000110599F0FE01E759FF4F90819750F8016D
:100670008081981708F49083F801408150E0BE0112
:10068000665D7F4FC7010E94F70B1D8E8D2DDF9198
:10069000CF911F910F91FF90EF90DF900895AF924F
:1006A000BF92CF92DF92EF920F93CF93DF93CDB7AC
:1006B000DEB72A970FB6F894DEBF0FBECDBF6C0130
:1006C0005B012A8749870E94D1018EE891E0F601FB
:1006D00091838083B68AA58A4985478B2A85208F96
:1006E000018FE38E88E0E8E0F1E0DE0111960190F1
:1006F0000D928A95E1F7D601A359BF4F88E0FE011C
:10070000319601900D928A95E1F72A960FB6F894EA
:10071000DEBF0FBECDBFDF91CF910F91EF90DF9085
:10072000CF90BF90AF9008952F923F924F925F92DB
:100730006F927F928F929F92AF92BF92CF92DF92F1
:10074000EF92FF920F931F93CF93DF9300D000D0CF
:100750001F92CDB7DEB71A013D832C836115710559
:1007600011F4F90143C06B01E12CF12C83E0CC0CB6
:10077000DD1CEE1CFF1C8A95D1F70AE610E0F1E0C3
:10078000FB83812C94E2992E94EFA92EB12C2A019F
:10079000612C712C42E050E0B801CE0101960E941C
:1007A000EE0B29813A8140E050E0C501B4010E947E
:1007B000C10BCA01B901A70196010E94C10B2230E9
:1007C00031054105510528F0241535054605570525
:1007D00040F08B818F5F8B830E5F1F4F8730D1F688
:1007E00009C0EB81E63059F4EC81FD811182108261
:1007F00080E012C02230310541055105A8F3C10146
:10080000A0E0B0E082179307A407B50768F3EC8176
:10081000FD81318320838B810F900F900F900F907B
:100820000F90DF91CF911F910F91FF90EF90DF908C
:10083000CF90BF90AF909F908F907F906F905F9080
:100840004F903F902F900895CF93DF9300D0CDB776
:10085000DEB7FC01658976899E012F5F3F4F4FEF20
:100860005FEF0E9494038823A9F01092800098E023
:100870009093810090918100982B909381008981C1
:100880009A81909389008093880080916F008260A4
:1008900080936F000F900F90DF91CF910895CF93C9
:1008A000DF93EC018F890E94AA0921E0892B09F4CA
:1008B00020E08A8D8227DF91CF910895FC01808D01
:1008C0000C947409FC01238D6227818D0C947409AA
:1008D000CF93DF93EC018A819B81029761F060E006
:1008E000CE010E94620460E0CE010E945E0482E0BC
:1008F00090E09B838A83DF91CF910895CF93DF931C
:10090000EC018A819B81049761F060E0CE010E9436
:10091000620460E0CE010E945E0484E090E09B836C
:100920008A83DF91CF910895CF93DF93EC018A8181
:100930009B81039781F0FE01E659FF4F10823196AB
:1009400010823196108261E0CE010E94620483E041
:1009500090E09B838A83DF91CF9108956F927F927D
:100960009F92AF92BF92CF92DF92EF92FF920F933E
:100970001F93CF93DF9300D0CDB7DEB73C01B62EE7
:100980004D3308F014C17C0125E7E20EF11CDC01B7
:10099000ED91FC910484F585E02D4A8379830995D6
:1009A0004A8117E0140F612F8FEF9FEF0E9404011F
:1009B000E12FF0E0A4E0F595E795AA95E1F7EA5478
:1009C000FE4F2081F70120831F70E12FF0E0EA54F1
:1009D000FE4F2081F301EA58FF4F2083D3011A967E
:1009E0006C910E940401F3012285E22FF0E0B4E053
:1009F000F595E795BA95E1F7EA54FE4F3081D301BA
:100A0000A958BF4F3C932F70E22FF0E0EA54FE4FFD
:100A10002081F301E858FF4F2083D3011B966C918E
:100A20000E940401F3012385E22FF0E014E0F59524
:100A3000E7951A95E1F7EA54FE4F3081D301A758A4
:100A4000BF4F3C932F70E22FF0E0EA54FE4F20811D
:100A5000F301E658FF4F2083D3011C966C910E944E
:100A60000401F3012485E22FF0E004E0F595E79519
:100A70000A95E1F7EA54FE4F3081D301A558BF4FE4
:100A80003C932F70E22FF0E0EA54FE4F2081F301F7
:100A9000E458FF4F2083D3011D966C910E940401FE
:100AA000F3012585E22FF0E034E0F595E7953A95DE
:100AB000E1F7EA54FE4F3081D301A358BF4F3C9376
:100AC0002F70E22FF0E0EA54FE4F2081F301E2584C
:100AD000FF4F20839B2C6301F0E8CF0ED11C0B2D20
:100AE0007981172F4A81202F2919241718F55801C9
:100AF000D8016C914A830E940401F6013197D80114
:100B00002D918D01A22FB0E074E0B595A7957A954F
:100B1000E1F7AA54BE4F2C912083D501EC91EF70E0
:100B2000F0E0EA54FE4F2081F6012083F2E0CF0E80
:100B3000D11CD8CF50E04B5F5F4F440F551F8095BD
:100B40009095E40EF51EDC0134E0B695A7953A9534
:100B5000E1F7AF70BB27AA54BE4F2C91D7012C935D
:100B6000FC01EF70FF27EA54FE4F208111962C9371
:100B70001197FC01EF2FFF27E295EF70EA54FE4F2B
:100B8000208112962C931297E92FFF27EF70FF27F1
:100B9000EA54FE4F808113968C93F301E550FF4F8A
:100BA000445F4083C3010E94940481E001C080E05F
:100BB0000F900F90DF91CF911F910F91FF90EF90C9
:100BC000DF90CF90BF90AF909F907F906F900895EF
:100BD000862F86958695887098E0980F891749F03A
:100BE000E82FF0E0EA54FE4F2081621719F08F5F82
:100BF000F5CF80E00895FF920F931F93CF93DF937B
:100C0000EC01F12C8FEF9FEF8E0107591F4FF80178
:100C10002081F21640F4FE01EF0DF11D65A10E9446
:100C20000401F394F4CF883B904F39F08F85988975
:100C30000196988B8F871D8E19C08EA18E838FA1F0
:100C40008F8388A5888789A589878D81811107C0B1
:100C50009E818C81981719F08E818F3F39F4898994
:100C60009A8901969A8B898B81E08D8FDF91CF9144
:100C70001F910F91FF900895CF93DF93EC018A812C
:100C80009B81039761F0CE010E947E048C8D8823A6
:100C900021F0CE010E94FB051C8E8D8D01C080E0ED
:100CA000DF91CF9108951F93CF93DF93EC010E94C2
:100CB0004F04882319F09F8D9F5F9F8F9E8D89170A
:100CC00071F098A1903518F42BE030E002C02DE1CE
:100CD00030E098A1290F311D28A38E8F03C088A171
:100CE0008C5E88A388A1803A08F46EC08AA19BA17B
:100CF000969587959BA38AA38F8D853028F08AA12E
:100D00009BA198609BA38AA388A1805A88A31F8E69
:100D100089A1882309F446C08CA18F5F8CA38C30F5
:100D200008F452C06AA17BA16F73CE010E94E8054E
:100D3000182F6AA17BA146E0769567954A95E1F761
:100D4000CE010E94E80590E1199F90011124822BA9
:100D5000BE0167597F4FFB019081DE01A859BF4F4B
:100D60009923B1F0FB01908121E0290F2083AE018E
:100D7000490F511DFA0185A3FB0190818C919817B1
:100D800078F019A281E08C8FCE010E94680408C01F
:100D90008C939C91973090F09C91943478F4E2CFAE
:100DA0001CA212C08AA19BA188339B4069F481E0F8
:100DB00089A31CA2C759DF4F188206C019A28F85CC
:100DC00098890196988B8F87DF91CF911F91089515
:100DD000CF92DF92EF92FF920F931F93CF93DF9307
:100DE000EC018C0104591F4FF801808191E0980FAC
:100DF0009083811136C06E01FAE6CF0ED11CF60148
:100E00008081EF56FF4F9081891748F0CE010E94F4
:100E100068048B899C8901969C8B8B8B22C0FE0178
:100E2000E80FF11DE359FF4F608170E07E01FBE6A2
:100E3000EF0EF11CF701808191E0980F908302C0C2
:100E4000759567958A95E2F76170CE010E945E0400
:100E5000F7018081863028F01082F60180818F5F53
:100E60008083F8018081883008F01082DF91CF9173
:100E70001F910F91FF90EF90DF90CF900895FC01AC
:100E8000228133812430310511F40C945306FC0186
:100E9000228133812330310511F40C94E806089542
:100EA0001F920F920FB60F9211242F933F934F93DF
:100EB0005F936F937F938F939F93AF93BF93EF93C2
:100EC000FF938091F0029091F1020E943F07FF9101
:100ED000EF91BF91AF919F918F917F916F915F91B2
:100EE0004F913F912F910F900FBE0F901F9018952B
:100EF0001F93CF93DF93EC010E942201182F8823C8
:100F0000B1F0D093F102C093F00261E0888D0E94AD
:100F10003B0960E08F890E943B0961E0898D0E9456
:100F20003B09CE010E946804CE010E942404812F57
:100F3000DF91CF911F910895CF93CFB7F89480910F
:100F4000F502811127C0E8EAF0E08491E4E9F0E0DD
:100F50009491E82FF0E0EE0FFF1FEA53FF4FA591A9
:100F6000B4918C91892321F461E08AE00E94740994
:100F700061E08AE00E943B098CB580618CBD8CB534
:100F800080648CBD61E08DE00E943B0961E08BE0F4
:100F90000E943B098091F5028F5F8093F502CFBFDD
:100FA000CF9108959FB7F8948091F502882319F0A6
:100FB00081508093F5028091F502811105C08CB5B6
:100FC0008F7B8CBD1092F4029FBF089508951F92ED
:100FD0000F920FB60F9211242F933F934F935F936D
:100FE0006F937F938F939F93AF93BF93EF93FF93F1
:100FF000E0910401F09105010995FF91EF91BF91F6
:10100000AF919F918F917F916F915F914F913F91A0
:101010002F910F900FBE0F901F9018951F920F9257
:101020000FB60F9211242F933F934F935F936F93BB
:101030007F938F939F93AF93BF93EF93FF93E09131
:101040000601F09107010995FF91EF91BF91AF91D2
:101050009F918F917F916F915F914F913F912F91D0
:101060000F900FBE0F901F90189508951F920F922A
:101070000FB60F9211242F933F938F939F93AF93AB
:10108000BF938091F7029091F802A091F902B0917C
:10109000FA023091F60223E0230F2D3720F4019657
:1010A000A11DB11D05C026E8230F0296A11DB11D8B
:1010B0002093F6028093F7029093F802A093F9022E
:1010C000B093FA028091FB029091FC02A091FD0284
:1010D000B091FE020196A11DB11D8093FB02909379
:1010E000FC02A093FD02B093FE02BF91AF919F91CD
:1010F0008F913F912F910F900FBE0F901F901895D9
:101100002FB7F8946091F7027091F8028091F9027C
:101110009091FA022FBF08953FB7F8948091FB0297
:101120009091FC02A091FD02B091FE0226B5A89B11
:1011300005C02F3F19F00196A11DB11D3FBF6627C5
:10114000782F892F9A2F620F711D811D911D42E00A
:10115000660F771F881F991F4A95D1F70895CF9280
:10116000DF92EF92FF92CF93DF936B017C010E949D
:101170008C08EB01C114D104E104F10489F00E9450
:1011800035080E948C086C1B7D0B683E734090F301
:1011900081E0C81AD108E108F108C851DC4FEACF54
:1011A000DF91CF91FF90EF90DF90CF9008957894EA
:1011B00084B5826084BD84B5816084BD85B582605C
:1011C00085BD85B5816085BDEEE6F0E080818160FA
:1011D0008083E1E8F0E010828081826080838081FA
:1011E00081608083E0E8F0E0808181608083E1EBD2
:1011F000F0E0808184608083E0EBF0E080818160BA
:101200008083EAE7F0E0808184608083808182606F
:101210008083808181608083808180688083109258
:10122000C1000895833081F028F4813099F0823034
:10123000A1F008958730A9F08830B9F08430D1F456
:10124000809180008F7D03C0809180008F77809394
:101250008000089584B58F7702C084B58F7D84BDEA
:1012600008958091B0008F7703C08091B0008F7D8A
:101270008093B0000895CF93DF9390E0FC01E65790
:10128000FF4F2491FC01E256FF4F8491882349F1DE
:1012900090E0880F991FFC01EA53FF4FA591B4918C
:1012A00084549F4FFC01C591D4919FB7611108C030
:1012B000F8948C91209582238C93888182230AC094
:1012C000623051F4F8948C91322F309583238C93B3
:1012D0008881822B888304C0F8948C91822B8C9314
:1012E0009FBFDF91CF9108950F931F93CF93DF930B
:1012F0001F92CDB7DEB7282F30E0F901EA58FF4F33
:101300008491F901E657FF4F1491F901E256FF4F1E
:1013100004910023C9F0882321F069830E941209F7
:101320006981E02FF0E0EE0FFF1FE454FF4FA5911D
:10133000B4919FB7F8948C91611103C010958123EB
:1013400001C0812B8C939FBF0F90DF91CF911F9194
:101350000F910895CF93DF93282F30E0F901EA58D9
:10136000FF4F8491F901E657FF4FD491F901E256FE
:10137000FF4FC491CC2391F081110E941209EC2FF0
:10138000F0E0EE0FFF1FEE54FF4FA591B4912C91AA
:101390002D2381E090E021F480E002C080E090E025
:1013A000DF91CF9108951F920F920FB60F921124E3
:1013B0002F938F939F93EF93FF93E0910F03F091FF
:1013C00010038081E0911503F091160382FD12C095
:1013D0009081809118038F5F8F732091190382177A
:1013E00051F0E0911803F0E0E150FD4F958F8093AC
:1013F000180301C08081FF91EF919F918F912F91F0
:101400000F900FBE0F901F9018951F920F920FB65E
:101410000F9211242F933F934F935F936F937F937A
:101420008F939F93AF93BF93EF93FF938FEF92E0D0
:101430000E94190BFF91EF91BF91AF919F918F91F6
:101440007F916F915F914F913F912F910F900FBEC0
:101450000F901F9018958FEF92E00E94DE0A21E016
:10146000892B09F420E0822F089510920203109234
:10147000010388EE93E0A0E0B0E080930303909333
:101480000403A0930503B09306038BED91E09093C2
:1014900000038093FF0285EC90E090930C0380930F
:1014A0000B0384EC90E090930E0380930D0380EC8B
:1014B00090E09093100380930F0381EC90E0909361
:1014C00012038093110382EC90E0909314038093B5
:1014D000130386EC90E0909316038093150310920B
:1014E00018031092190310921A0310921B03089507
:1014F000CF92DF92EF92FF920F931F93CF93DF93E0
:101500007C016A01EB0100E010E00C151D0571F093
:101510006991D701ED91FC910190F081E02DC70117
:101520000995892B19F00F5F1F4FEFCFC801DF918D
:10153000CF911F910F91FF90EF90DF90CF90089582
:101540006115710581F0DB010D900020E9F7AD0117
:1015500041505109461B570BDC01ED91FC91028073
:10156000F381E02D099480E090E0089566EC71E04D
:101570000C94A00A0F931F93CF93DF93EC010E946A
:10158000A00A8C01CE010E94B60A800F911FDF9144
:10159000CF911F910F9108950E94E90B08950E9429
:1015A000D7080E94CE0A0E94A400CBE0DBE00E9494
:1015B000B8002097E1F30E940B0BF9CFFC01818D5D
:1015C000228D90E0805C9F4F821B91098F73992739
:1015D0000895FC01918D828D981731F0828DE80F6E
:1015E000F11D858D90E008958FEF9FEF0895FC0128
:1015F000918D828D981761F0828DDF01A80FB11D4A
:101600005D968C91928D9F5F9F73928F90E008956D
:101610008FEF9FEF08958BE29AE0892B49F080E0ED
:1016200090E0892B29F00E942B0A81110C94000074
:101630000895FC01848DDF01A80FB11DA35ABF4F8F
:101640002C91848D90E001968F739927848FA689C1
:10165000B7892C93A089B1898C9180648C93938DE8
:10166000848D981306C00288F389E02D80818F7DD8
:1016700080830895CF93DF93EC01888D8823C9F090
:10168000EA89FB89808185FD05C0A889B9898C918B
:1016900086FD0FC00FB607FCF5CF808185FFF2CF26
:1016A000A889B9898C9185FFEDCFCE010E94190BD5
:1016B000E7CFDF91CF910895CF92DF92FF920F9302
:1016C0001F93CF93DF931F92CDB7DEB76C0181E0FC
:1016D000D60158968C9358975B969C915B975C9635
:1016E0008C915C97981307C05096ED91FC9151979F
:1016F000808185FD2EC0F601038D10E00F5F1F4F26
:101700000F731127F02EF601848DF81211C00FB659
:1017100007FCF9CFD6015096ED91FC91519780814D
:1017200085FFF1CFC60169830E94190B6981EBCF58
:10173000838DE80FF11DE35AFF4F6083D6015B965E
:101740000C935B975296ED91FC9153978081806248
:101750000CC0D6015696ED91FC9157976083509638
:10176000ED91FC91519780818064808381E090E0CD
:101770000F90DF91CF911F910F91FF90DF90CF904D
:101780000895A1E21A2EAA1BBB1BFD010DC0AA1FC2
:10179000BB1FEE1FFF1FA217B307E407F50720F0DA
:1017A000A21BB30BE40BF50B661F771F881F991F55
:1017B0001A9469F760957095809590959B01AC019E
:1017C000BD01CF010895EE0FFF1F0590F491E02DAC
:1017D000099481E090E0F8940C94000CFB01DC018A
:1017E00002C005900D9241505040D8F70895FB017A
:1017F000DC0102C001900D9241505040D8F708958D
:04180000F894FFCF8A
:1018040001000000E607E6072A2A2A2A2A2A382C99
:1018140072662064726976657220696E69742066E6
:1018240061696C656400414D4200000000002201C2
:10183400CC0ACC0ACC0ACC0A48015A019F0168019F
:1018440027012A012D013001330124013A013D0110
:1018540040014301460100000000CC0AE501E60115
:10186400CC0ACC0AE901ED01F101E701E801050028
:10187400040400000000010208020C0280023E027F
:10188400E901ED01F10110022D02000000007807CA
:101894003C061903AE04170348015A019F0168016D
:1018A40027012A012D013001330124013A013D01B0
:1018B4004001430146010D0E131516191A1C232568
:1018C40026292A2C32340D0A006E616E00696E6678
:1018D400006F7666002E00000000005C0B780ADEC4
:0818E4000AF70AE90A3A0B00B9
:00000001FF
